:020000040800F2
:10000000B808002065010008EB0C0008350C00085A
:1000100000000000000000000000000000000000E0
:100020000000000000000000000000005F10000859
:1000300000000000000000005D100008AD10000886
:100040007701000800000000770100087701000830
:1000500077010008770100087701000877010008A0
:100060000000000077010008770100087701000810
:100070007701000877010008770100080000000000
:100080007701000800000000000000007701000870
:1000900000000000770100087701000877010008E0
:1000A0007701000877010008770100087701000850
:1000B00077010008000000000000000000000000C0
:1000C00000F002F800F03EF80CA030C80838241800
:1000D0002D18A246671EAB4654465D46AC4201D180
:1000E00000F030F87E460F3E0FCCB6460126334274
:1000F00000D0FB1AA246AB46334318479C3400009D
:10010000BC340000103A02D378C878C1FAD852073C
:1001100001D330C830C101D504680C6070470000BD
:100120000023002400250026103A01D378C1FBD813
:10013000520700D330C100D50B6070471FB51FBDFB
:1001400010B510BD00F0FAF81146FFF7F7FF01F007
:1001500009F800F012F903B4FFF7F2FF03BC00F056
:1001600019F900000748804707480047FEE7FEE707
:10017000FEE7FEE7FEE7FEE704480549054A064BB1
:10018000704700001D110008C1000008B8020020DF
:10019000B8080020B8040020B804002001E004C022
:1001A000091F0429FBD28B0701D50280801CC907D7
:1001B00000D00270704700290BD0C30702D0027034
:1001C000401C491E022904D3830702D50280801CEB
:1001D000891EE3E70022EEE70022DFE700220309A1
:1001E0008B422CD3030A8B4211D300239C464EE052
:1001F00003460B433CD4002243088B4231D303090E
:100200008B421CD3030A8B4201D394463FE0C309BF
:100210008B4201D3CB01C01A524183098B4201D3D7
:100220008B01C01A524143098B4201D34B01C01AC2
:10023000524103098B4201D30B01C01A5241C3083A
:100240008B4201D3CB00C01A524183088B4201D3A9
:100250008B00C01A524143088B4201D34B00C01A95
:100260005241411A00D201465241104670475DE0AA
:10027000CA0F00D04942031000D34042534000222D
:100280009C4603098B422DD3030A8B4212D3FC22D6
:10029000890112BA030A8B420CD3890192118B4255
:1002A00008D3890192118B4204D389013AD092116B
:1002B00000E08909C3098B4201D3CB01C01A524126
:1002C00083098B4201D38B01C01A524143098B42EF
:1002D00001D34B01C01A524103098B4201D30B01D8
:1002E000C01A5241C3088B4201D3CB00C01A5241FD
:1002F00083088B4201D38B00C01A5241D9D24308E4
:100300008B4201D34B00C01A5241411A00D2014620
:10031000634652415B10104601D34042002B00D58A
:100320004942704763465B1000D3404201B500204C
:10033000C046C04602BD704770477047754600F022
:1003400025F8AE46050069465346C008C0008546FC
:1003500018B020B5FFF710FF60BC00274908B6466B
:100360000026C0C5C0C5C0C5C0C5C0C5C0C5C0C5C4
:10037000C0C5403D49008D46704710B50446C04693
:10038000C0462046FFF7E7FE10BD0000004870475A
:100390005402002001491820ABBEFEE726000200EF
:1003A0007047000070B5044600F0C8F80546601CB0
:1003B00002D004480078241800F0C0F8401BA04286
:1003C000FAD370BD04000020F0B5002303249AE0A6
:1003D0002A4601259D402A407ED00E79B607B60FE9
:1003E000012E01D0022E16D186682746B4465E0043
:1003F000B646B7406646BE43B446CF687646B74079
:100400006646374387604668AE430D79ED06ED0FCB
:100410009D40354345600D79ED43AD0708D0C56873
:100420005F002646BE40B5438E68BE402E43C66080
:100430000D79AD07AD0F022D0ED1DD08AD002D18E1
:10044000AC462D6A5E07F60E0F27B740BD430F6915
:10045000B7402F4365462F6205685F002646BE40C1
:10046000B5430E79B607B60FBE402E4306604D6801
:10047000AD03AD0F46D09E08264DB6007519AC46AB
:100480002D6E9E07F60E0F27B740BD4305273F0789
:10049000B84201D100270FE01F4FB84201D1012718
:1004A0000AE01E4FB84201D1022705E01C4FB842B6
:1004B00001D1032700E00527B7402F43154D6646BD
:1004C00037662D684E689543F60200D51543114FE7
:1004D0003D607D68954300E014E04E68B60200D5AB
:1004E00015437D600B4D80356E684F689643BF03A2
:1004F00000D516436E602E684F689643FF0300D503
:1005000016432E605B1C0A681546DA4000D05FE790
:10051000F0BD000000180240000400500008005028
:10052000000C00500069084000D001207047002AEC
:1005300001D0816170478162704700000148806886
:100540007047000004000020024881680278891882
:10055000816070470400002010B50848002401683D
:10056000821511430160032000F00AF8002801D031
:10057000012401E000F028F8204610BD00200240D0
:1005800070B50F4E002431780546002915D07D2026
:10059000C000FFF723FE01460A480068FFF71EFE71
:1005A00000F030FB002808D1042D06D20022294695
:1005B000401E00F01FF8756000E00124204670BD69
:1005C000040000201000002008B50948016801223D
:1005D0001143016000681040009005484038C26B2C
:1005E00001040A43C263C06B0840009008BD0000CC
:1005F0004010024010B500F093FD10BD10B50F4C37
:10060000216803225202914301432160C11FFF3937
:10061000FA390ED10A480621006848430949FFF714
:10062000DDFD401C02E0002805D0401E616949053F
:10063000F9D4002010BD032010BD00000070004060
:100640001000002040420F00F8B50F46060043D0CE
:100650004D4D28684007400FB84213D22868C008A3
:10066000C00038432860FFF769FF044605E0FFF744
:1006700065FF011B4548814261D828684007400F4B
:10068000B842F4D13068424C81070DD5400704D5FB
:10069000A068072109030843A060A0680F21090290
:1006A0008843B1680843A0603078C00732D07068D2
:1006B00001280AD002280BD000280FD0344940313D
:1006C00003280ED0C969890704E02168890301E085
:1006D00021688901002906DB0120F8BD2168490550
:1006E000F8E7096AEFE7A168C908C9000143A160FA
:1006F000FFF724FF009006E0FFF720FF0099411A62
:10070000224881421BD8A068382108407168C9007E
:100710008842F1D128684007400FB84217D91A48DB
:100720000168C908C90039430160FFF707FF0546A2
:1007300007E0FFF703FF411B1448814201D9032062
:10074000F8BD114800684007400FB842F1D1307839
:10075000400706D5A068072109038843F1680843CC
:10076000A06000F01DF8A1683C2289091140094AE7
:10077000515CC906C90EC8400749086007480068AF
:10078000FFF7FEFEF8BD00000020024088130000C5
:100790000010024060120008100000200800002035
:1007A00010B5204CA068204A8006400F16D0A068E3
:1007B0008006410F501001290FD0A1688906490F0A
:1007C000022912D0A0688006400F042823D0A06818
:1007D0008006400F032821D0002010BD2068012191
:1007E0008004400F8140104612E0E1688B07E16809
:1007F0009B0F4906490F491C032B00D01046FFF7F9
:10080000EDFCE1684904490E4843E168490F491C81
:10081000FFF7E4FC10BD0120C00310BD7D200002E5
:1008200010BD0000001002400024F400F8B50400E0
:100830007ED020783827C007E94D002846D0A86828
:10084000E96838408907890F102802D008280BD0A2
:1008500001E0032908D001206268000482420AD125
:1008600029680143296015E0286880032ED5606857
:100870000028DDD02AE0052301211B0489049A42C7
:100880002A6802D10A432A60EAE782432A6028687C
:1008900088432860606800280CD0FFF74FFE0646AA
:1008A00004E0FFF74BFE801B642873D828688003A0
:1008B000F7D50BE0FFF742FE064604E0FFF73EFEE9
:1008C000801B6428F1D828688003F7D4207880073B
:1008D00069D5A868E96838408A070721920FC902DC
:1008E000102802D0002813D001E0022A10D0E068BE
:1008F000002846D028688843216908432860286872
:10090000FF21013108432860FFF718FE06462CE05E
:100910002A68520502D5E268002A89D06A687F23D6
:100920001B029A4363691B021A436A60002800E0B5
:100930008DE00ED128688843216908432860286823
:1009400001218004400F8140A648FFF747FCA649DB
:100950000860A6480068FFF713FE002877D122E060
:10096000FFF7ECFD801B02289FD828684005F7D5CB
:1009700068687F2109028843616909020843686049
:1009800011E02968FF20013081432960FFF7D6FD7F
:10099000064605E098E0FFF7D1FD801B022884D8C9
:1009A00028684005F7D42078914E00072ED5A86816
:1009B0008006400F03280AD0A0690028306A16D0AC
:1009C000012108433062FFF7B9FD07460BE0306AAA
:1009D00080071BD5A06900289FD017E0FFF7AEFD68
:1009E000C01B022870D8306A8007F7D50EE0400897
:1009F00040003062FFF7A2FD074604E0FFF79EFDCE
:100A0000C01B022860D8306A8007F7D420784007DE
:100A10006CD5A86800278006400F042818D0E86B22
:100A2000C00008D4E96B012000070143E963E96BCA
:100A30000140012700916F480168C90519D4016878
:100A4000821511430160FFF779FD00900DE083E00E
:100A5000F06980074AD5A06800287DD046E0FFF7FE
:100A60006DFD0099401A02282ED862480068C00522
:100A7000F5D5A168012910D004200529F16911D00C
:100A800049084900F161F1698143F161A0680028DA
:100A900016D0FFF753FD00900EE0F06901210843E6
:100AA000F061F3E70143F161F7E7FFF747FD0099D4
:100AB000411A5148814265D8F0698007F5D50EE0AA
:100AC000FFF73CFD009007E05CE0FFF737FD009981
:100AD000411A4948814255D8F0698007F5D4002F62
:100AE00004D0E96B012000078143E963E069002835
:100AF00073D0A9688906490F02294DD00126360610
:100B00000228286805D0B0432860FFF717FD044687
:100B10003AE0B0432860FFF711FD074604E0FFF715
:100B20000DFDC01B02282DD828688001F7D4616A0A
:100B3000206AA26A0843E16A120211430843216B4A
:100B40000843E9682D4A11400843E86028683043AB
:100B50002860E868012100E03DE009070843E860FB
:100B6000FFF7ECFC044604E0FFF7E8FC001B02285A
:100B700008D828688001F7D52FE0FFF7DFFC001BBD
:100B8000022801D90320F8BD28688001F5D4E8685F
:100B90001B490840E86020E00128F4D0E868226A98
:100BA0008107890F914216D17021626A01409142FA
:100BB00011D17F21A26A09020140120291420AD199
:100BC0001F214904E26A0140914204D1400F216B88
:100BD0004007884201D00120F8BD0020F8BD000088
:100BE000001002400024F400100000200800002043
:100BF0004010024000700040881300008C80C11F2C
:100C0000FCFFFEEF094910B5401E884201D90120C2
:100C100010BD074C60610321081F00F081FA00201D
:100C2000A06107202061002010BD0000FFFFFF0031
:100C300000E000E0FEE7000070B501220D4D540217
:100C400021462846FFF773FC012280212846FFF742
:100C50006EFC00F043F8002221462846FFF767FCAF
:100C600000F03CF8002280212846FFF760FC00F0ED
:100C700035F870BD0004005070B50124094D6402C0
:100C8000002221462846FFF752FC012280212846F7
:100C9000FFF74DFC00F022F8012221462846FFF71D
:100CA00046FC70BD0004005010B50B4C01225102EF
:100CB0002046FFF73CFC00F011F80122802120467D
:100CC000FFF735FC00F00AF8002280212046FFF7EC
:100CD0002EFC00F003F810BD000400500320014674
:100CE000401EC0B20029FAD17047FEE710B50021BE
:100CF000094B0A4600208400E418401CC0B262542C
:100D00008028F8D3491CC9B20429F3D30120FFF786
:100D100049FB00F0C7F810BD1400002010B50028F2
:100D200006D0012803D10021A72000F07CF910BDD6
:100D30000021A620F9E710B500280AD0012807D124
:100D40000021C02000F06FF90021A02000F06BF915
:100D500010BD0021C82000F066F90021A120F5E7B0
:100D600030B5CC084B075B0F01259D40EBB2074D1A
:100D700080004519C808285C002A01D0184302E009
:100D8000C0431843C043285530BD00001400002064
:100D900030B5424887B0426B02210A434263406B40
:100DA00005240840059001200190032003900020B5
:100DB0003B4DE4010290009469462846FFF704FB8E
:100DC000012221462846FFF7B2FB0021AE2000F0A9
:100DD0002AF90021084600F026F90021102000F031
:100DE00022F90021084600F01EF90021B02000F091
:100DF0001AF90021812000F016F90021FF2000F0EF
:100E000012F90021A12000F00EF90021A62000F027
:100E10000AF90021A82000F006F900211F2000F0A7
:100E200002F90021C82000F0FEF80021D32000F0D4
:100E3000FAF80021084600F0F6F80021D52000F06D
:100E4000F2F80021802000F0EEF80021D92000F017
:100E5000EAF800211F2000F0E6F80021DA2000F077
:100E6000E2F80021084600F0DEF80021DB2000F067
:100E7000DAF80021402000F0D6F800218D2000F0A3
:100E8000D2F80021142000F0CEF8FFF72FFF002148
:100E9000AF2000F0C8F807B030BD000000100240DD
:100EA0000004005070B5174E00242046B030C0B288
:100EB000002100F0B8F80021084600F0B4F8002145
:100EC000102000F0B0F8FFF7B7FE782000F0C8F867
:100ED000FFF7EAFE402000F0C3F8FFF7E5FE00252B
:100EE000A8008019005D00F0BBF8FFF7DDFE6D1C67
:100EF000EDB2802DF4D3FFF7BFFE641CE4B2042CE6
:100F0000D3D370BD14000020FFB589B009980790B5
:100F100058081C460E4605910690082B0DD0E00897
:100F2000610700D00121401806994843C0B2203A19
:100F30000190D0B20390002047E00620F7E7082C8C
:100F400011D00C2C14D0102C17D0182C41D1039890
:100F50002421484321494118009800270D5CE807E7
:100F60000FD0129A11E00398062148431C49F2E77A
:100F700003980C2148431B49EDE703981A490001E7
:100F8000E9E71298002826D0002231460998FFF799
:100F9000E7FE761C7F1C6D08FFB2F6B2082FDED389
:100FA0000998401CC0B20990082C0AD00799411A30
:100FB0000698814205D10798099005980830C0B27B
:100FC00005900098059E401CC0B20199009088428F
:100FD000B5D30DB0F0BD0122D7E700002C1F0008EB
:100FE000A0120008C81400083C190008FFB581B021
:100FF0001E46154604465F080BE00A9800903346EB
:1010000020460299FFF780FF082E09D03819C4B294
:101010006D1C2A78104620385E28EED905B0F0BD48
:10102000A41DE4B2F4E770B50C460546FFF704FED4
:10103000782000F015F8FFF737FE002C01D0402093
:1010400000E0002000F00CF8FFF72EFE284600F02C
:1010500007F8FFF729FEFFF70FFE70BD70477047D6
:10106000F8B500240127104E05467F02280601D559
:10107000012200E0002239463046FFF758FAFFF718
:101080002DFE012280213046FFF751FAFFF726FEA0
:10109000002280213046FFF74AFA6806641C050EDC
:1010A000E4B2082CE2D3F8BD0004005010B5FFF7FD
:1010B0004BFA10BD30B591B034216846FFF78CF87B
:1010C000002501200D950E950F9540021095FFF714
:1010D00095FA0224E0010390009440200590082036
:1010E0000A9080030B900794000304950C900995D7
:1010F00008946846FFF79AFB002801D072B6FEE715
:1011000007200DA931C102210DA81095FFF79CFA07
:10111000002801D072B6FEE711B030BD7047000064
:101120008307FF22DB0E9A408907090E99400028A9
:1011300008DB830809489B001B1818689043084384
:10114000186070470007000F0838830804489B00A8
:101150001B18D86990430843D861704700E400E049
:1011600000ED00E086B0FFF7F7F9FFF7A3FFFFF708
:101170000FFE0020FFF7D2FD0020FFF7DCFD012469
:101180000C2330A200214A200094FFF72FFFFFF725
:1011900089FE142101A8FFF71FF82B48416B21435A
:1011A0004163406B0026204000903320C00101A91C
:1011B00051C1022005252D07049001A92846FFF7FB
:1011C00003F9202001A9039441C128460839FFF7FB
:1011D000FBF81E4F20212846FFF7A4F9002810D164
:1011E000C820FFF7DFF820212846FFF79BF90028E9
:1011F00007D13878401CC0B23870032801D33E7044
:10120000E8E73878012811D00228E3D10C2310A296
:1012100000214A200094FFF7E9FEFFF743FE012278
:101220003321C9012846FFF782F9D3E70C2309A22D
:1012300000214A200094FFF7D9FEFFF733FE002279
:10124000EEE70000563A00000010024000000020C7
:10125000323A000031313131313131313100000069
:10126000000000000000000000000000000000007E
:10127000000000000000000000000000000000006E
:101280000100000002000000030000000400000054
:101290000600000007000000080000000900000030
:1012A0000000000000000000002F00000000070008
:1012B000070000147F147F1400242A7F2A12006282
:1012C000640813230036495522500000050300002E
:1012D00000001C224100000041221C000014083EB6
:1012E00008140008083E0808000000A0600000087C
:1012F00008080808000060600000002010080402D0
:10130000003E5149453E0000427F4000004261518D
:101310004946002141454B31001814127F10002727
:1013200045454539003C4A494930000171090503EA
:1013300000364949493600064949291E000036361B
:10134000000000005636000000081422410000147E
:10135000141414140000412214080002015109065B
:1013600000324959513E007C1211127C007F4949DC
:101370004936003E41414122007F4141221C007F0D
:1013800049494941007F09090901003E4149497A1B
:10139000007F0808087F0000417F41000020404195
:1013A0003F01007F08142241007F40404040007F01
:1013B000020C027F007F0408107F003E4141413E45
:1013C000007F09090906003E4151215E007F09198D
:1013D00029460046494949310001017F0101003F8A
:1013E0004040403F001F2040201F003F4038403F0A
:1013F000006314081463000708700807006151496E
:10140000454300007F41410000552A552A55000000
:1014100041417F000004020102040040404040407E
:10142000000001020400002054545478007F484416
:10143000443800384444442000384444487F00384D
:101440005454541800087E0901020018A4A4A47C76
:10145000007F080404780000447D40000040808440
:101460007D00007F102844000000417F4000007C88
:1014700004180478007C0804047800384444443894
:1014800000FC242424180018242418FC007C0804E0
:10149000040800485454542000043F444020003CB9
:1014A0004040207C001C2040201C003C4030403C40
:1014B000004428102844001CA0A0A07C00446454D0
:1014C0004C44141414141414000000000000000014
:1014D000000000000000FC0000000000020000000E
:1014E000000C020C020000000000000090D0BCD0F4
:1014F000BC900003000300001824FE448C0003028B
:10150000070201001824D8B04C800003000102013A
:10151000C038E438E00001020201020208060000BF
:101520000000000000000000000000F804020000BD
:1015300000010204000204F800000004020100009F
:101540009060F86090000000010000002020FC2066
:10155000200000000100000000000000000008065C
:1015600000000000202020202000000000000000DB
:101570000000000000000002000000000080601C6D
:101580000200040300000000F8040404F800010253
:10159000020201000008FC0000000002030200003B
:1015A00018844424180003020202020008042424C0
:1015B000D80001020202010040B088FC8000000057
:1015C000000302003C242424C400010202020100A2
:1015D000F824242CC0000102020201000C04E41CC7
:1015E0000400000003000000D8242424D8000102D5
:1015F0000202010038444444F800000302020100E2
:1016000000001000000000000200000000002000A8
:1016100000000000060000000020508804020000C6
:1016200000000102909090909000000000000000E7
:101630000002048850200002010000001804C424A5
:101640001800000002000000F804E494F800010211
:101650000202020000E09CF080000203000003028E
:1016600004FC2424D800020302020100F80404044C
:101670000C0001020202010004FC0404F800020351
:101680000202010004FC24740C00020302020300A5
:1016900004FC24740C00020302000000F00804445F
:1016A000CC4000010202010004FC2020FC040203E3
:1016B000000003020404FC0404000202030202000E
:1016C000000404FC040406040403000004FC24D009
:1016D0000C0402030200030204FC040000000203E5
:1016E00002020203FC3CC03CFC00030003000300B8
:1016F00004FC30C4FC04020302000300F8040404E8
:10170000F80001020202010004FC24241800020374
:1017100002000000F8848404F800010202070500BA
:1017200004FC2464980002030200030218242444E9
:101730008C000302020201000C04FC040C000002F5
:101740000302000004FC0000FC040001020201008E
:10175000047C80E01C040000030000001CE03CE06E
:101760001C00000300030000049C609C04000203B2
:1017700000030200041CE01C04000002030200003D
:101780000C84641C04000203020203000000FE0239
:101790000200000007040400000E30C0000000003A
:1017A00000010200000202FE000000040407000025
:1017B000000402040000000000000000000000001F
:1017C00000000808080808080000020000000000E7
:1017D000000000000040A0A0C000000102020302BF
:1017E00004FC2020C00000030202010000C02020F1
:1017F000600000010202020000C02024FC00000181
:101800000202030200C0A0A0C00000010202020008
:101810000020F82424040002030202000040A0A0DB
:10182000602000070A0A0A0404FC2020C00002030A
:10183000020003020020E400000000020302000096
:10184000000020E4000008080807000004FC80E015
:1018500020200203020003020404FC000000020234
:1018600003020200E020E020C000030003000300A8
:1018700020E02020C00002030200030200C020205C
:10188000C00000010202010020E02020C000080F7B
:101890000A02010000C02020E0000001020A0F0837
:1018A00020E0402020000203020000000060A0A011
:1018B00020000002020203000020F82000000000C7
:1018C0000102020020E00020E00000010202030209
:1018D00020E0208060200000030100006080E080A4
:1018E000600000030003000020608060200002030D
:1018F0000003020020E020806020080807010000AB
:101900000020A0602000000203020200000020DE90
:101910000200000000070400000000FF00000000BB
:10192000000F00000002DE2000000004070000009D
:101930000201020404020000000000000000000098
:10194000000000000000000000000000000000F89F
:1019500000000000000000333000000000100C0602
:10196000100C0600000000000000000040C078409D
:10197000C0784000043F04043F040400007088FC69
:1019800008300000001820FF211E0000F008F000C1
:10199000E018000000211C031E211E0000F0088832
:1019A000700000001E2123241927211010160E009C
:1019B000000000000000000000000000000000E047
:1019C000180402000000000718204000000204185C
:1019D000E00000000040201807000000404080F0B8
:1019E000804040000202010F01020200000000F0EE
:1019F000000000000101011F0101010000000000C2
:101A00000000000080B07000000000000000000036
:101A100000000000000101010101010100000000BF
:101A20000000000000303000000000000000000056
:101A300080601804006018060100000000E0100833
:101A40000810E000000F102020100F00001010F808
:101A5000000000000020203F202000000070080847
:101A600008887000003028242221300000300888C7
:101A7000884830000018202020110E000000C020EF
:101A800010F8000000070424243F240000F8088810
:101A9000880808000019212020110E0000E010889D
:101AA00088180000000F112020110E0000380808CF
:101AB000C83808000000003F0000000000708808DF
:101AC00008887000001C222121221C0000E0100860
:101AD0000810E0000000312222110F00000000C0B9
:101AE000C000000000000030300000000000008056
:101AF0000000000000008060000000000000804046
:101B0000201008000001020408102000404040405E
:101B100040404000040404040404040000081020B1
:101B200040800000002010080402010000704808F6
:101B30000808F0000000003036010000C030C8285E
:101B4000E810E0000718272423140B000000C03819
:101B5000E0000000203C23020227382008F8888893
:101B600088700000203F202020110E00C03008089F
:101B700008083800071820202010080008F8080876
:101B80000810E000203F202020100F0008F888886F
:101B9000E8081000203F20202320180008F888883B
:101BA000E8081000203F200003000000C0300808B3
:101BB0000838000007182020221E020008F808003C
:101BC0000008F808203F210101213F20000808F803
:101BD000080800000020203F202000000000080826
:101BE000F8080800C08080807F00000008F888C0E6
:101BF00028180800203F20012638200008F8080097
:101C000000000000203F20202020300008F8F800CD
:101C1000F8F80800203F003F003F200008F830C0DF
:101C20000008F808203F200007183F00E0100808CF
:101C30000810E0000F10202020100F0008F80808FE
:101C40000808F000203F210101010000E010080811
:101C50000810E0000F18242438504F0008F8888836
:101C600088887000203F2000030C30200070880816
:101C7000080838000038202121221C00180808F824
:101C8000080818000000203F2000000008F80800A5
:101C90000008F808001F202020201F000878880076
:101CA00000C83808000007380E010000F80800F8E6
:101CB0000008F800033C0700073C03000818688090
:101CC0008068180820302C03032C30200838C80006
:101CD000C83808000000203F200000001008080855
:101CE000C83808002038262120201800000000FEF7
:101CF000020202000000007F40404000000C30C0A3
:101D000000000000000000010638C00000020202CE
:101D1000FE000000004040407F0000000000040280
:101D200002020400000000000000000000000000AB
:101D3000000000008080808080808080000202049B
:101D40000000000000000000000000000000808093
:101D5000808000000019242222223F2008F8008001
:101D600080000000003F112020110E0000000080C4
:101D700080800000000E1120202011000000008053
:101D80008088F800000E112020103F200000808085
:101D900080800000001F222222221300008080F099
:101DA000888888180020203F2020000000008080C4
:101DB00080808000006B94949493600008F8008009
:101DC00080800000203F210000203F200080989864
:101DD000000000000020203F2020000000000080C4
:101DE0009898000000C08080807F000008F8000004
:101DF00080808000203F24022D302000000808F859
:101E0000000000000020203F202000008080808013
:101E100080808000203F20003F20003F80800080A5
:101E200080800000203F210000203F2000008080B3
:101E300080800000001F202020201F008080008064
:101E40008000000080FFA12020110E000000008013
:101E500080808000000E112020A0FF808080800004
:101E60008080800020203F21200001000000808031
:101E7000808080000033242424241900008080E026
:101E8000808000000000001F2020000080800000F3
:101E900000808000001F202020103F2080808000D4
:101EA0000080808000010E300806010080800080E4
:101EB000008080800F300C030C300F000080800009
:101EC000808080000020312E0E3120008080800034
:101ED0000080808080818E701806010000808080E4
:101EE000808080000021302C222130000000000082
:101EF000807C020200000000003F40400000000023
:101F0000FF00000000000000FF0000000002027C53
:101F1000800000000040403F00000000000601017A
:101F200002020404000000000000000000000000A5
:101F300000000000000000000000000000000000A1
:101F40000000000000000000000000000000000091
:101F50000000000000F0F0F00000000000000000B1
:101F600000017F010000000000000000001C1C1C9C
:101F70000000000000008060301C8C60301C0C00F1
:101F80000000000000000000000000000000000051
:101F90000000000000000000000000E00000000061
:101FA00000E000000086E69F86868686E69F860023
:101FB00000011F01010101011F010100000080C09B
:101FC0006020F820E0C00000000003070C18FF703C
:101FD000E18100000000070F10107F100F070000C4
:101FE0008060206080000000E02000000F30203082
:101FF0009F70DC371030C0000000100E030007187F
:10200000101807000000C02020E0C0000000000001
:1020100080E01F38E88703C43C040000070F181055
:10202000100B070D1010080000808C4C38000000C9
:1020300000000000000000000000000000000000A0
:102040000000000000000000000000000000000090
:10205000000080E0300804000000000000FEFF01E6
:1020600000000000000000000000030F18204000E6
:1020700000040830E08000000000000000000000C4
:1020800001FFFE0000000000004020180F030000C8
:1020900000000000000000000000C0000000000080
:1020A000004266663C18FF183C666642000000006D
:1020B000000003000000000000000000000080009D
:1020C00000000000001010101010FF101010101071
:1020D00000000000000003000000000000000000FD
:1020E00000000000000000000000000000000000F0
:1020F0000000000000808C4C380000000000000050
:10210000000000000000000000000000001010109F
:10211000101010101010100000000000000000004F
:1021200000000000000000000000000000000000AF
:1021300000000000000000000000000000001C1C67
:102140001C00000000000000000000000000000073
:10215000E0380C000000000080701C03000000004C
:102160000060380E0100000000000000000080C088
:10217000E06030302060E0C000FFFFFF00000000A2
:10218000000001FF0001070F0E1C1818180C0F07A4
:10219000000000808080C0E0F0000000000000002F
:1021A000000000FFFF000000000000000000001F12
:1021B0001F000000000080C0E06020202060E0C020
:1021C000000003030380C0E070381F0F00181E1FBB
:1021D0001F1B191818181818000080C0E060202074
:1021E0002060E0C00000010101001010183CEFE782
:1021F0000000070F0C181818181C0F0F0000000023
:10220000000080C0E0F0F00000C0E0F8BC8E8783E2
:1022100080FFFF800001010101010101011F1F0179
:10222000000000E0E06060606060606000001E1F11
:102230001F0C0404040CFCF80000070F0C181818FD
:10224000180C0F07000000C0E06060202060E0C0B4
:102250000000FFFF31180C0C0C1CF9F900000307FB
:102260000F1C1818181C0F07000060606060606089
:102270006060E0E000000000000000C0F87F0F0395
:102280000000000000181F0F03000000000080C0C5
:10229000E06020202060E0C00080C7EF2C381010E4
:1022A0001038EFE70003070F1C181818181C0E0F42
:1022B000000080C0E060202060E0C08000001F3F80
:1022C000706060602030FFFF0000060E1C181818B8
:1022D0001C0E0F03000000000000000000000000C2
:1022E00000000000000E0E0E0000000000000000C4
:1022F000001C1C1C0000000000000000000000008A
:102300000000000000000000000C0C0000000000B5
:10231000000000000058380000000000000000002D
:1023200000000080402010000000102844820100BE
:10233000000000000000000000000102040810007E
:102340000000000000000000000000000084848401
:1023500084848484848484000000000000000000E1
:10236000000000000000102040800000000000007D
:102370000000000000000182442810000000100846
:10238000040201000000000000C020201010101006
:1023900030E0C0000003030000F010080C07030049
:1023A000000000001C1C1C0000000000000000C019
:1023B000406020202040C00000FCFF01F00E03C15F
:1023C000FE03807F0001070E08111110110904029D
:1023D0000000000080E0E000000000000000807CC1
:1023E0004340477FF880000010181F1000000000D5
:1023F000131F1C1020E0E02020202060C08000007F
:1024000000FFFF10101010182FE78000101F1F1082
:1024100010101010180F0700000080C0402020206E
:102420002060E00000FCFF0100000000000001004F
:102430000001070E181010100804030020E0E0202F
:1024400020202040C080000000FFFF0000000000AE
:1024500001FFFE00101F1F10101018080E070100CA
:1024600020E0E020202020202060800000FFFF10DE
:102470001010107C00000000101F1F101010101012
:102480001018060020E0E02020202020606080005E
:1024900000FFFF101010107C00000100101F1F1023
:1024A0000000000000000000000080C0602020202C
:1024B00040E0000000FCFF0100004040C0C140407F
:1024C0000001070E181010100F0F000020E0E02090
:1024D0000000000020E0E02000FFFF1010101010AE
:1024E00010FFFF00101F1F1000000000101F1F1022
:1024F0000000202020E0E02020200000000000005C
:1025000000FFFF000000000000001010101F1F104F
:102510001010000000000000202020E0E02020201B
:1025200000000000000000FFFF0000000060E080ED
:102530008080C07F3F00000020E0E020000020A05D
:102540006020200000FFFF30187CE3C00000000086
:10255000101F1F10000001131F1C181020E0E020A6
:10256000000000000000000000FFFF00000000006D
:1025700000000000101F1F1010101010101806008F
:1025800020E0E0E000000000E0E0E02000FF013F8C
:10259000FEC0E01E01FFFF00101F1000031F03001C
:1025A000101F1F1020E0E0C0000000000020E0200D
:1025B00000FF0003071C78E08000FF00101F1000E0
:1025C00000000000030F1F00000080C0602020609A
:1025D000C080000000FEFF010000000000FFFE00C0
:1025E0000001070E181010180C07010020E0E02071
:1025F0002020202060C0800000FFFF20202020201D
:10260000301F0F00101F1F1000000000000000000E
:10261000000080C060202060C080000000FEFF013C
:102620000000000000FFFE000001070E1111133C26
:102630007C67210020E0E0202020202060C0800076
:1026400000FFFF101030F0D0080F0700101F1F1000
:10265000000000030F1C10100080C060202020200C
:102660004040E00000070F0C1818303060E0810097
:10267000001F0C0810101010180F07008060202099
:1026800020E0E020202060800100000000FFFF002B
:102690000000000100000000101F1F1000000000DB
:1026A00020E0E020000000000020E02000FFFF000C
:1026B000000000000000FF0000070F1810101010AD
:1026C000100807002060E0E02000000020E060200B
:1026D0000000077FF88000807C03000000000000FD
:1026E000071F1C070000000020E0E02000E0E020C1
:1026F0000020E0200007FFF8E01FFFFCE01F0000C3
:102700000000031F0300011F03000000002060E021
:10271000A0000020E0602000000000038F7CF8C6CD
:10272000010000000010181E130001171F181000F0
:102730002060E0E02000000020E0602000000107B1
:102740003EF8E0180700000000000010101F1F10E6
:102750001000000000806020202020A0E0E0200089
:1027600000000000C0F03E0F0300000000101C1F1E
:1027700017101010101806000000000000FC0404E0
:10278000040404000000000000FF0000000000003E
:1027900000000000007F404040404000000010E08A
:1027A000000000000000000000000000031C60802A
:1027B0000000000000000000000000030C7080001A
:1027C00000000404040404FC0000000000000000F9
:1027D000000000FF00000000000040404040407F3B
:1027E0000000000000000010080C040C081000009D
:1027F00000000000000000000000000000000000D9
:1028000000000000000000000000000000000000C8
:1028100000000000000000000000000000000000B8
:1028200080808080808080808080808000000004A4
:102830000408080000000000000000000000000084
:102840000000000000000000000000000000000088
:10285000000000000000000000000000000098D808
:1028600044642424FCF80000000F1F181010100806
:102870001F1F10180020E0F0000000000000000002
:102880000000FFFF180804040CF8F00000001F0F00
:1028900018101010180F03000000000000000000C6
:1028A0000000000000E0F8180404043C38000000B8
:1028B00000030F0C101010100806000000000000AC
:1028C00000000020E0F0000000E0F81C0404040810
:1028D000FFFF000000030F18101010081F0F080062
:1028E0000000000000000000000000000000E0F810
:1028F000484444444C7870000000030F0C1810103A
:10290000100804000000000080C0602020E0C0002B
:1029100000040404FFFF040404040000000010107D
:102920001F1F101010000000000000000000000039
:1029300000000000000070F88C04048CF874040C93
:10294000007076CF8D8D8D89C87870000020E0F002
:1029500000000000000000000000FFFF0804040465
:10296000FCF8000000101F1F100000101F1F1000B7
:10297000000000000060600000000000000004048F
:1029800004FCFC000000000000001010101F1F10CD
:102990001010000000000000000000606000000057
:1029A00000000000040404FCFC0000000000C0C0A3
:1029B0008080C07F3F0000000020E0F000000000A9
:1029C000000000000000FFFF80C0F41C04040000B1
:1029D00000101F1F1100031F1C10100000002020FA
:1029E00020E0F000000000000000000000FFFF00F9
:1029F0000000000000001010101F1F101010000039
:102A000000000000000000000000000004FCFC08C2
:102A100004FCFC0804FCFC00101F1F10001F1F100A
:102A2000001F1F1000000000000000000000000058
:102A30000004FCFC08080404FCF8000000101F1F40
:102A4000100000101F1F1000000000000000000018
:102A50000000000000E0F0180C04040C18F0E00086
:102A600000030F0C101010100C0F030000000000EA
:102A700000000000000000000004FCFC0804040446
:102A80000CF8F0000080FFFF889010101C0F03006E
:102A900000000000000000000000000000E0F81C42
:102AA00004040408F8FC000000030F1810109088BC
:102AB000FFFF800000000000000000000000000098
:102AC000040404FCFC100804040C0C001010101F7B
:102AD0001F101010000000000000000000000000A7
:102AE0000000000000003078CCC48484840C1C00FA
:102AF00000001E1810101011190F06000000000031
:102B000000C000000000000000040404FFFF0404F3
:102B100004000000000000000F1F1010100C000047
:102B20000000000000000000000000000004FCFEA7
:102B300000000004FCFE000000000F1F1810100829
:102B40001F0F08000000000000000000000000004F
:102B500000040C3CFCC40000C43C0C040000000059
:102B6000010F1E0E01000000000000000000000028
:102B700000000000043CFCC400E47CFC84807C0475
:102B80000000071F070000071F07000000000000EB
:102B900000000000000000000004041C7CE4C034BD
:102BA0001C0404000010101C1601131F1C18100038
:102BB00000000000000000000000000000040C3CC9
:102BC000FCC400C43C0404000000C080C1370E01F6
:102BD00000000000000000000000000000000000F5
:102BE00000001C0404C4F47C1C0400000000101C41
:102BF0001F17111010180E0000000000000000F850
:102C00000C04000000000000001028EF000000008D
:102C1000000000000000003F6040000000000000D5
:102C20000000FF0000000000000000000000FF00A6
:102C300000000000000000000000FF000000000095
:102C40000000040CF800000000000000000000007C
:102C5000EF28100000000000000040603F0000006E
:102C600000000000001806020204081020203008AE
:102C70000000000000000000000000000000000054
:102C8000000000000000000000000C12120C000008
:102C90000000000000000000000000000000000034
:102CA0000000000000000000080888FF48480008F5
:102CB00048FF0808F80000008165080720C00804E4
:102CC00023C0030023C40F000000F8088888888808
:102CD000FF8888882818000080601F80804344286F
:102CE00010284443808080000000FE2222FE001055
:102CF0001010FF101010000080601F42827F814181
:102D0000310D030D314181001060028C0000FE92F4
:102D100092929292FE00000004047E01407E4242A4
:102D20007E427E42427E40000000FC242424FC259A
:102D30002624FC242424040040308F80844C552514
:102D40002525554C808080004040407C404040FF1D
:102D50004444444444404000809088464040202FF2
:102D6000101008040200000090523410FF1034527A
:102D700080708F0808F80800829A566322528E00ED
:102D80008040330C33408000008060F80700FC84F2
:102D90008484FE8283828000010000FF0000FF40E7
:102DA0002000418E3040F800080808F80808081094
:102DB00010FF101010F000001030101F088848306D
:102DC0000E014080403F000088A8A8FFA8A8880006
:102DD0004444FC2223220000201806FF020C0004B9
:102DE00004047F828282F20000FC848484FC001050
:102DF00010101010FF101000003F1010103F0000C6
:102E0000010640807F00000000F8010600F0121269
:102E100012F2020202FE000000FF0000001F11116A
:102E2000111F0040807F00001010F1969090102834
:102E30002724E42424E4040080601F40807F806015
:102E40001F207F4444444000C8B88FE88888404829
:102E500048E85F4848484000081808FF040400029A
:102E60000B1222D20A0600000000FE1292B2D29289
:102E70009292D2B29E00000040300F0484641F047E
:102E80000404FF0404040000000202FAAAAFAAAA84
:102E9000AAAFAAFA0202000012120A7E0A0B0AFE68
:102EA0000A2A4A3E0A1212000000F010101010FF09
:102EB00010101010F000000000000F04040404FFC4
:102EC000040404040F000000040404C44F4444F448
:102ED00044444FC4040404008484444724140C076D
:102EE0000C14244744848400404040FF20202004E8
:102EF00004FC040404FC00000000001F08844220BD
:102F000018074080403F0000101010FF902010E88C
:102F10002724E4342CE000000242817F00848447AF
:102F2000241C071C2447840000E000FF10200888B0
:102F3000780F08E808088800010000FF00100C83E3
:102F40004423180718628100201008F75454545481
:102F5000545454F404040000809090494D572525A2
:102F600025554D458080800000007C40404040FF5A
:102F700040404040FC000000007C40404040407F1A
:102F80004040404040FC00000000FE0202020202FD
:102F9000020202020202020080601F000000000024
:102FA0000000000000000000404042CC0040A09E15
:102FB0008282829EA02020000000003F9088404333
:102FC0002C10284641808000001715D55557557D97
:102FD000555755D5151700004040407F555555555C
:102FE0005555557F4040400000001011161010F05C
:102FF00010101413100000008181414121110D03B4
:103000000D1121414181810040404242424242FE35
:103010004242424242404000000000000040807FA7
:1030200000000000000000001010D0FF9010804849
:1030300028090E0828488800040300FF000180804A
:10304000432C102C4380800000020CE04020F84FFD
:103050004849FE484848080004047F000000FF2259
:1030600022223F22222220000000F8888888880837
:1030700008FF08090AC8080080601F0010201F8090
:10308000402116182641F800080808F8080808101A
:1030900010FF101010F000001030101F088848308A
:1030A0000E014080403F0000101014D4545454FCD2
:1030B000525252D312101000404050575555557F70
:1030C0005555555750404000000000FC44444445CD
:1030D00046444444447C00004020180700FC44441B
:1030E0004444444444FC0000008060F80700FC8431
:1030F0008484FE8283828000010000FF0000FF4084
:103100002000418E3040F8001060028C0000FE92DA
:1031100092929292FE00000004047E01407E4242A0
:103120007E427E42427E40001010D0FF9014E4AFF9
:10313000A4A4A4AFE4040000040300FF00894B2A08
:103140001A0E1A2A4B8880001010909090909010C0
:1031500010FF101011161000002060203F101010FA
:1031600000030C102040F8000000E0F0F0F0F0F058
:10317000F0F0FCFEFEFEFEF8F0F0F0F0F0F0F0E013
:103180000000FFFFFFFFFFEEEEEEFFFFFFFFFFFF80
:10319000EEEEEEFFFFFFFFFF00000103030303035A
:1031A00003033F7F7F7F7F7F7B7B7B7B7B7C7E7E80
:1031B00000000000F8FCFCFCFC7C7C7C3CBCBCBC43
:1031C000BCBCBC7C7C7C7C7C000000E0FFFFE1DCC4
:1031D000FE3E3E3E3EFFFFFFFFFF3F5EEEEEEEFE99
:1031E00000383E7F7F413C3C3C3C3C3C3C3F3F3FC9
:1031F0003F3F3F3E3933373700E0E0E0FCFEFEFE64
:10320000FCE0E010F0F0F0FCFCFCFEFCFCF0F0F068
:1032100000E1F1FDFFFFF3CDBF7D7C3287FFFFF7BB
:10322000E3C0E1F3FFFFF777000001013F7F7F7FFD
:103230004738787C7C3F3F3F1F1F1F3F3F3F7C7CD0
:10324000000070F8F8F8F8F030C0E0F8FCFEFEFE80
:10325000ECE8FCFCFCFCF8F000000080C0E1F1F0C0
:10326000F70FFFFFFFFFFFEEEEEEFFFFFFFFEEEEBB
:1032700000000F1F1F1F1F0F07003F7F7F7F7F1E54
:103280001E1E1F1F1F1F1E1E00808C9CBE7E7C7872
:10329000B0000080F8FCFCFCFC3CFCFCFCBCDCC08E
:1032A00000070707FFFFFFFFFF80866FEFEFF7F7CD
:1032B000F978F7F7F7F7F7F7000000003F3F3F1FF7
:1032C000073B7B7F7D7F3F3F1F1F1F1F3F3F7D7C55
:1032D0000000387C7C7C7C6C6C7C7CFCFCECFCFC1A
:1032E0007C7C6C6C7C7C7C7C00000F0FFBFBFBFB14
:1032F000FBFB5B5F5F5F5F5F5B5BFBFBFBFBFB07FE
:10330000000078787F7F7F7F7F7F75757575757515
:1033100075757F7F7F7F7F780000000000000000D0
:1033200000000000000000FCF800000000000000A9
:10333000000000000000000000000000FFFE02028C
:1033400002020202020202FFFF0202020202020263
:103350000202FF0300000000000000001F1F040421
:1033600004040404040404FFFF0404040404040427
:1033700004041F0000000000000000000000000026
:10338000000000000000007F3F000000000000007F
:10339000000000000000000000000000000000002D
:1033A000000000000000000000000000000000001D
:1033B0000000000000F8F8F0F070200000000000AD
:1033C00000000000000000000000000000000000FD
:1033D00000000000000000000000000000000000ED
:1033E000800000000000000000000000000000005D
:1033F0000000000000FFFFFFFF00000000000000D1
:1034000000000000000000000000000080800000BC
:1034100000000000000000000000000000000000AC
:1034200000FFFFFE06060606060606060606060658
:103430000606060606FFFFFFFF0606060606060648
:103440000606060606060606060606FFFFFFFF0737
:10345000020000000000000000000000000000006A
:1034600000FFFFFF0000000000000000000000005F
:103470000000000000FFFFFFFF0000000000000050
:103480000000000000000000000000FFFFFFFF0040
:10349000000000000000000000000000000000002C
:1034A00000FFFFFF181818181818181818181818FF
:1034B0001818181818FFFFFFFF18181818181818F0
:1034C0001818181818181818181818FFFFFFFF00F8
:1034D00000000000000000000000000000000000EC
:1034E00002010100000000000000000000000000D8
:1034F0000000000000FFFFFFFF00000000000000D0
:1035000000000000000000000000000101000000B9
:1035100000000000000000000000000000000000AB
:10352000000000000000000000000000000000009B
:103530000000000000FFFFFFFF000000000000008F
:10354000000000000000000000000000000000007B
:10355000000000000000000000000000000000006B
:10356000000000000000000000000000000000005B
:1035700000000000001F1F0F0F00000000000000EF
:10358000000000000000000000000000000000003B
:103590000000000000000000B83500080000002016
:1035A0001400000004010008CC35000814000020BD
:1035B000A408000020010008000000000100000035
:0C35C00004000000000000000024F400E3
:04000005080000C12E
:00000001FF
