:020000040800F2
:10000000C00B002049010008F92E0008C72A00088B
:1000100000000000000000000000000000000000E0
:10002000000000000000000000000000DF370008B2
:1000300000000000000000006F370008B938000819
:100040005B010008000000005B0100085B01000884
:100050005B0100085B0100085B0100085B01000810
:10006000000000005B0100085B0100085B01000864
:100070005B0100082D3900085B010008000000004A
:100080005B01000800000000000000005B010008A8
:10009000000000005B0100085B0100085B01000834
:1000A0005B0100085B0100085B0100085B010008C0
:1000B0005B010008000000000000000000000000DC
:1000C00000F002F800F030F80CA030C8083824180E
:1000D0002D18A246671EAB4654465D46AC4201D180
:1000E00000F022F87E460F3E0FCCB6460126334282
:1000F00000D0FB1AA246AB4633431847D463000036
:10010000F46300000023002400250026103A01D3E8
:1001100078C1FBD8520700D330C100D50B607047BF
:100120001FB51FBD10B510BD00F028FF1146FFF729
:10013000F7FF03F0F3FC00F040FF03B4FFF7F2FF1A
:1001400003BC00F075FF00000748804707480047E0
:10015000FEE7FEE7FEE7FEE7FEE7FEE704480549A7
:10016000054A064B7047000029390008C100000805
:10017000C0050020C00B0020C0070020C0070020E1
:1001800001E004C0091F0429FBD28B0701D50280BE
:10019000801CC90700D00270704700290BD0C3072C
:1001A00002D00270401C491E022904D3830702D5E5
:1001B0000280801C891EE3E70022EEE70022DFE7D1
:1001C000002203098B422CD3030A8B4211D3002354
:1001D0009C464EE003460B433CD4002243088B422E
:1001E00031D303098B421CD3030A8B4201D39446BB
:1001F0003FE0C3098B4201D3CB01C01A52418309AE
:100200008B4201D38B01C01A524143098B4201D367
:100210004B01C01A524103098B4201D30B01C01A92
:100220005241C3088B4201D3CB00C01A524183080C
:100230008B4201D38B00C01A524143088B4201D339
:100240004B00C01A5241411A00D201465241104699
:1002500070475DE0CA0F00D04942031000D340420E
:10026000534000229C4603098B422DD3030A8B4244
:1002700012D3FC22890112BA030A8B420CD38901E2
:1002800092118B4208D3890192118B4204D38901C8
:100290003AD0921100E08909C3098B4201D3CB0106
:1002A000C01A524183098B4201D38B01C01A5241BB
:1002B00043098B4201D34B01C01A524103098B42BF
:1002C00001D30B01C01A5241C3088B4201D3CB00AA
:1002D000C01A524183088B4201D38B00C01A52418D
:1002E000D9D243088B4201D34B00C01A5241411A64
:1002F00000D20146634652415B10104601D3404292
:10030000002B00D54942704763465B1000D3404242
:1003100001B50020C046C04602BD70477047704717
:100320000246C80FC00781434B0030B54B405B000D
:100330009B0D20D01923DB06C91801231B05994208
:1003400020DB0324A40704251346AB400BD3002B6A
:1003500004D1EB0613409B00E34204D4012464075C
:10036000002312195941FF231B0599420BD2C900E2
:100370000143500F09E0CB0204D5014308030243B7
:1003800005D0054830BDFF21C905084330BD0846EA
:1003900007210905884330BD0000C07FF0B50C4639
:1003A000871A9C410D46861A9D4103D2C01BA1416C
:1003B000D21963410D0D1F0DC94EEC1BAE435CD02D
:1003C0007F057F0D0026002F51D02D05AC46A94397
:1003D000DD020123ED0A1B051D4320231B1B24D432
:1003E0001746E740381871412F46E740CC199D4029
:1003F0002818314661410C0D27D161449A4013D52C
:100400000023401C594152000ED1400840000122F7
:100410004B005205D34207D305204007C14201D506
:10042000B04900E0B0493046F0BD6B00002A00D072
:1004300001229A181F23203C1B1B01D5002302E038
:10044000E540281871410C0DD7D001242405091965
:10045000C407CD0740084908E40F28436144002C35
:10046000D5D00024401C61419A40D0D1CDE76A0527
:10047000520DD9D1C90FC907D5E79C4D4E000028B0
:1004800001D0012400E0002434195F00002A01D0CB
:10049000012600E00026BE19954FAC420CD8AE42B2
:1004A0000AD8B44206D001256D05EC42BCD01046F6
:1004B0001946F0BD9942FCD000203946F0BDF0B598
:1004C0001FB40C460F46811A9F412546861A9D414E
:1004D00006D20125ED076F40401ABC4152187B41FE
:1004E000210D1E0D8D1BAC467D4D8D437ED07505B7
:1004F0006D0D7CD00D05AE46AC431B031B0B794D37
:1005000052429D41202366469B1B14D31746F74059
:10051000381800260090744160462F460741E419C0
:1005200000989D402818664116D4714671189A406B
:1005300025D5012320E093182A466A415200002B5A
:1005400000D0521C1E23203E9B1B002B61DD354139
:10055000EE1728186641E8D5001876415B1C9A40D2
:1005600000D3401C4B05F3181524E34010D3002B97
:1005700052D071467118D30FC01802D3491C05B070
:10058000F0BD0123DB079A42F9D140084000F6E7AD
:1005900001225205B21801D1002853D00123CC0A00
:1005A000DB029943891E002A08D1020C03D0020CF9
:1005B0000004103902E00246002020390023550BC8
:1005C00005D112020823550B01D152010D23550C00
:1005D00001D112011B1DD50C01D192009B1C150DE0
:1005E00001D152005B1C2025EE1A01E02CE022E034
:1005F0000546F54015439840CA1AE10769181305E6
:10060000C918002ABBDA032040070818C10FC90720
:100610000FE071466118B2E7F10740080843711016
:1006200071444A000CD001235B059A42A7D2C90F3E
:10063000C9070020A3E74905490D26D1002001E0A4
:100640000028F4D100219AE7284D6600002801D047
:10065000012100E0002171185F00002A01D001266D
:1006600000E00026BE19224FA94210D8AE420ED893
:10067000B14208D001256D05E94206D01946A8020D
:10068000414010467BE79C4201D0214677E700209D
:10069000394674E710B50C465C4005D50124E407E3
:1006A0006340FFF70CFF10BDFFF778FE10BD30B4BC
:1006B0000C465C4004D50124E407634030BC6DE681
:1006C00030BCFCE670B50124E40761400D465D4096
:1006D00002D4FFF763FE70BD6340FFF7F0FE70BD0C
:1006E000FF0700000000F0FF0000F07F0000E0FFC7
:1006F0000000F87FF0B5F94D0C091E092C402E4082
:100700002F468BB0A7437DD0B543FCD0002E7AD0C6
:10071000002CFCD00D465D40ED0F2543AC1BFF25A2
:10072000AD0464190894C502440DC9022143500D5B
:10073000DC0204430120C00701430443D2020191BB
:10074000200C110C00958C46010423468B430A9122
:1007500061460904E24D8A430991010A7D44491921
:100760008039097805464D4301266D18F605751B3D
:100770006943C90C640B891C4C436418B5012C1BDC
:10078000250C2E04B4434C434D43210C69188909B0
:100790000591009DE90701D00121C90704912C466C
:1007A00001996708CD072F434C08059DE10B4D4388
:1007B0002D0C29466646754302950D4645432E4647
:1007C000029D7D1BB44100950D465D4301942C0CA8
:1007D0002F040D465543AE462D0C3D430295039420
:1007E0007546049C2D04641B049406D2029C039D50
:1007F000641C002675410395029401AC70CC009FE7
:100800007D1B01E03EE162E1B441090400950791DE
:1008100001940599A4086143090C0C464443650BF7
:10082000E7040C4666467443A646640B3C430395B6
:1008300002947446049DE4042C1B049406D2029C8A
:10084000039D641C002675410395029401AC70CC95
:10085000009F7D1BB44101940C465C430095650FDD
:10086000E7000C465443A646640F3C4303950294AC
:100870007446049DE4002C1B049406D2029C039D44
:10088000641C002675410395029401AC70CC009F56
:100890007D1BB441AE09AF06049DC900AD092F43CD
:1008A000049DA406AD060495079D3443691807917D
:1008B000059DE10B4D432D0C294666467543029577
:1008C0000D4645432E46029D7D1BB44100950D46C5
:1008D0005D4301942C0C2F040D465543AE462D0C60
:1008E0003D43029503947546049C2D04641B0494B7
:1008F00006D2029C039D641C002675410395029458
:1009000001AC70CC009F7D1BB44101948C05069412
:10091000079C890A611800950791019C0599A40814
:100920006143090C0D464543680BEF040D466446D0
:1009300065436C0B3C43049FED047D1BAC4602D227
:100940000025641C6841009E019D371B85410846B7
:10095000584301950C46460FC5005443600F284389
:100960006546E4002C1B02D20025401C6E41019D0F
:100970003F1AB5412846BD09800628438446A00990
:10098000BF064E020699A40676180743079D00206D
:1009900068410A99079019430020099B009060461E
:1009A000FF1913434041E20F64003A43A446044652
:1009B000D71A8C41A04203D90120009020463A4624
:1009C000C70F941840416246D20F22436446640028
:1009D0000494009CBE466400D71AA44604460297BD
:1009E0008C417746002F01D1A04204D96046401CBB
:1009F0008446029A2046C40FA64694184041049AA1
:100A00000546D20F224364466400D31A8D417146D5
:100A1000002901D1A84202D928461A46641C104375
:100A20000122002800D0164361020020079B89198B
:100A300004465C410223002C02DB49181346644142
:100A4000089DCE0A2D145D194B056705E10A2C059A
:100A50000D1908993E43C9076940002B08D09340FF
:100A600006D30022761C5141002B01D17608760076
:100A70001C4A002D43DB154241D0AA433FD03046EB
:100A80000BB0F0BD06180D464D41174C7642AC41F7
:100A90001AD395181C465C41134A6D42A24113D3E8
:100AA000012252054C00D4420AD15C00D4420BD042
:100AB0004B4002D592021143E2E749004908DFE7C3
:100AC0005940C90FC90718E000200849D8E7054870
:100AD00001420DD10342F7D0F2E700000000FF070A
:100AE000F05C00000000F07F0000E0FF0000F87FF5
:100AF000114859400143C01241400020C0E7012382
:100B0000089A9B069A4205DC032252078918C90FEE
:100B1000C907B5E7052252078918074A1143D212BF
:100B20005140ADE770B515461C4602460B462846B7
:100B30002146FFF7DFFD70BDFFFFFF7F0346CA02BE
:100B4000400D10B510430A1504D00124E4072043DA
:100B5000002A05DB0A4CA21A04D4D040FF2A00DD8B
:100B6000002010BD4A00002B01D0012000E0002031
:100B7000101801225205D042F2D8C817C04310BD48
:100B80001E0400001F22030C02D10F22000402D019
:100B9000030E03D004E00020014670470002083A2B
:100BA000030F01D10001121F830F01D18000921E9B
:100BB000002801DB4000521E120551184205C012E8
:100BC000411810467047C10FC90700D040420122AA
:100BD00092071143D6E701218907D3E7F0B58B4C83
:100BE0000F09254689B0BD437BD01D092646AE437B
:100BF000FAD00E465E402740F60F3E43254071D0A6
:100C000024012142FBD0FF24AD19A4042D1B039520
:100C100001252D05DB02DB0AC9022B43C90A294342
:100C20001E010901040F130F050121431701880B51
:100C3000820391432D098C46A90B1E438A039543D9
:100C4000B30B9A0396433F09BA0B9403A74302964A
:100C50002E467E430497B6464E19D7190C46019688
:100C6000544305977E43371B7646BF1B3601B64675
:100C7000BE0B361900967646BC043719009C01D38A
:100C8000641C00946400002F01D001263443029EAE
:100C9000049F754366467E430496760034196E00C1
:100CA00034190094029C019E1C196643751BAE46C4
:100CB000069465464519059C05956C435943754650
:100CC0000891691A0191049E01465143A41B0491A5
:100CD000611A009C0791E10605D0610901221143C8
:100CE00002E072E06EE06109089D00272C0A2D06E3
:100CF0006918049D7C412A0A2D066918019D6241EC
:100D0000AC0DAD026D185441079A910D9202551920
:100D10006141029A644658435443069B059A5A43DC
:100D2000121A131B9A0E9B015B187A41010B0005E6
:100D3000C3185141220A200644195A419A4200D24E
:100D4000491C01204002814203D315230226F643A9
:100D500002E014230326F6432020C51AA9401746B3
:100D6000AF40DA400A4320460399D840091473186B
:100D700019055118039A3843D2075140AC4009D0A5
:100D80000122944006D30022401C5141002C01D185
:100D9000400840001E4A934212D301220398920653
:100DA000904207DB0520400709181A480143C0128A
:100DB000414004E0032040070818C10FC907002084
:100DC00009B0F0BD0020F107FAE705180C464C41C8
:100DD00011486D42A04115D394181A465A410E4845
:100DE000644290410ED301204A004005824209D35B
:100DF0005A00824206D35940C90F084AC907002049
:100E00001143DDE700200649DAE700000000FF0794
:100E1000FE070000FFFFFF7F0000E0FF0000F07F03
:100E20000000F87F0121C9050123411842001B067B
:100E3000D3185B0E0AD0C1100722D20689184007CA
:100E40005242D14201D5520089187047090208D593
:100E50000146002A03D0C10FC90700207047104681
:100E60007047420202D0002002497047072109055D
:100E70000143F4E70000F87F0102C21504D001230A
:100E8000DB071943002A0ADB9E239A1A02D408467C
:100E9000D0407047FF2241001206914201D9002044
:100EA0007047C017C0437047F8B5224C4E00069DEE
:100EB000A6420AD8A64201D1002806D15E00A64269
:100EC00003D8A6420AD1002A08D00D2424042542C2
:100ED0002CD02946002000F02FF8F8BD0C461C430A
:100EE0000CD4994202D0EFF30080F8BD904202D0BA
:100EF000EFF30080F8BDEFF30080F8BD092424076C
:100F0000E5008B4206D0EFF30080A043591A06D2C9
:100F1000284304E0101A05D3EFF30080A04380F3C8
:100F20000088F8BDEFF30080A043F1E7009500F0E2
:100F30001BF8F8BD0000E0FFC80212D54803400FBF
:100F4000002804D0C803C043012188407047EFF354
:100F500000800001000903210907084380F300888D
:100F6000704700207047000010B500200249029A27
:100F700000F02BF810BD00000000F87F754600F06F
:100F800053F8AE46050069465346C008C000854682
:100F900018B020B5FFF7E2F860BC00274908B64654
:100FA0000026C0C5C0C5C0C5C0C5C0C5C0C5C0C578
:100FB000C0C5403D49008D46704710B50446C04647
:100FC000C0462046FFF7B9F810BD10B50C46110712
:100FD000090F092904D00A290AD008290CD104E0F4
:100FE00011460820FFF7A8FF06E0510606D501E0EC
:100FF000510601D50120C007214610BDD10607D5F5
:1010000001010909CC084907000E0006044309E064
:10101000410F20024907000A0143200E00061D224D
:10102000D14101430846E7E70048704760050020CA
:1010300001491820ABBEFEE726000200704770B5DC
:101040008C180578401C6B075B0F01D10378401C9E
:101050002A1106D10278401C03E00678401C0E706D
:10106000491C5B1EF9D12B0705D40023521E0DD459
:101070000B70491CFAE70378401CCB1A921C03E062
:101080001D780D70491C5B1C521EF9D5A142D8D3A6
:10109000002070BD10B5846AA16D502211420DD19F
:1010A000A06D012149020843A065206801F0FEFE01
:1010B00000281BD0A07E002807D017E0A16DC9062C
:1010C00024D5204600F052FC10BD206801680907B5
:1010D0000CD501F0E7FE0146012000290AD0A16DE0
:1010E00020221143A165E16D0143E165204600F036
:1010F0003BFC10BD21684A680C239A434A60A16DED
:10110000FF22013291430143A165EFE7216D496B55
:10111000884710BD10B5806A816D402211438165FA
:10112000C16D04221143C16500F020FC10BD10B553
:10113000806A00F01AFC10BDF8B5044600688168AA
:101140008907CD0F01F0A6FE00282AD0002D28D156
:10115000206881680522114010250126012914D13B
:101160008168114A1140891C816021680320086050
:1011700000F0CEFE074610E000F0CAFEC01B0228B9
:101180000BD920688068C00707D0A06D2843A065F0
:10119000E06D3043E0650120F8BD20688068C0073D
:1011A000EAD10020F8BD0000E8FFFF7F38B5104805
:1011B000816B012211438163806B0F4C10400090C2
:1011C0000C4820609102A1610020A060891061613B
:1011D00080212161E0602021E161206205206060C2
:1011E000204600F031FD204664380465A06238BD19
:1011F0000010024008000240AC040020F8B504468C
:1012000000200090206801F045FE002845D12068AC
:101210008168234A10261140002930D18168D543C6
:101220002940491C81601F48006807218905084042
:1012300000020AD51D481C490068FEF7C1FF401C8A
:1012400000E0401E00900028FBD1607E012824D0E1
:1012500000F05EFE07461BE001F01CFE002804D1F2
:10126000206881682940491C816000F051FEC01B44
:1012700002280DD920680068C043C00708D0A06DBF
:101280003043A065E06D01210843E0650846F8BDE4
:1012900020680168C943C907DED10020F8BD0000FD
:1012A0001700008008270140400D03000C000020BB
:1012B000F0B5304887B0416B012529434163406B4D
:1012C000284005902B484030026829050A430260F7
:1012D0000068002408400590032001900F20009032
:1012E000052069460294000700F058FD2348224972
:1012F0000160490541608576890A01610146203116
:101300000C70C46004264462466107224263846212
:10131000C661046382630C77C4640D73846000F05B
:1013200027FB164F15480C3F7C603D603946BC607A
:1013300000F008FA12483946BC6041C7381D083F22
:1013400000F000FA0F4838600F4C0820BC6078604D
:1013500039460A4800F0F6F90C4838600C20BC60A9
:1013600039467860081800F0EDF9044800F056F9A5
:1013700007B0F0BD001002400024014048040020E6
:10138000020000040400000804FFFF070800000C2E
:1013900010B500F01DF9FF21052001228131000761
:1013A00000F0AFFD10BD10B5044601F08AFCA0208E
:1013B00001F0FEFB01F088FBE0B201F0F9FB01F067
:1013C00083FB01F07EFCA12001F0F2FB01F07CFB2D
:1013D00001F0C5FB044601F09FFB01F053FC2046E1
:1013E00010BD70B50D46044601F06BFCA02001F065
:1013F000DFFB01F069FBE0B201F0DAFB01F064FB16
:10140000284601F0D5FB01F05FFB01F03BFC052015
:1014100000F0B2FC70BD000010B50446006C094934
:101420008008800040186064207814210838FEF796
:10143000C7FE04498031A164C106C90E012088405D
:10144000E06410BD000802400179084B8906890E4E
:101450008A00D2180265054A4432491E42658A074D
:10146000920F01219140816570470000FC08024005
:10147000F0B5846CC56C6560046D002C02D0446DC1
:10148000856D65600B4C6568066C1C273E40012726
:10149000B7403D436560046863608368102B036850
:1014A00003D099600068C260F0BD9A600068C160B6
:1014B000F0BD00000000024010B50446042001F019
:1014C00097F80148046010BDF801002000B50A48F3
:1014D00087B0426B01210A434263406B029108408E
:1014E00005900020019070200090052069460007BB
:1014F00000F054FC07B000BD00100240F0B587B00A
:1015000014216846FEF75AFE1748416B012529430E
:101510004163416B29400591416B022421434163A2
:10152000406B0026204005900320C0026A460394C9
:1015300061C205273F076946384600F02FFC039437
:1015400040206A4661C2094C6946204600F026FCEC
:1015500000224021204600F0D4FC00222903384616
:1015600000F0CFFC07B0F0BD0010024000040050B6
:1015700030B587B0044614216846FEF71FFE0523E8
:1015800000200122114980251B07012C10D0002CBE
:101590000CD14C6B14434C63496B00951140019086
:1015A000059102906946184600F0F8FB07B030BD7F
:1015B0004C6B14434C63496B0290C907C90F0095EB
:1015C0000220019205910390ECE700000010024018
:1015D00030B587B014216846FEF7F0FD0E48426B27
:1015E00001210A434263406BFF2408408134009488
:1015F0000590002002900220052501912D070390FF
:101600006946284600F0CAFB01222146284600F020
:1016100078FC07B030BD000000100240FEB5002786
:101620000546044640350097287D3E4601280ED0E9
:10163000012028752046FFF77FFD0290206801F009
:101640002DFC0028A06D04D0102108436FE002207B
:10165000FEBDFF210131884302210843A0652068B7
:10166000C168354A11400191C168D2431140C1603F
:1016700000212068826817239A43DB071A4382609F
:101680002E4A20680CE0009B5B1C0093934207D31A
:10169000A06D0221884310210843A0652F7536E014
:1016A0008368DB0FEFD18030406B491C4006400E51
:1016B00086190829DDD33046FEF782FD01462068F1
:1016C00083681F4A13405B1C836020688030436B33
:1016D000DB09DB010B434363206881681140891CEF
:1016E000816000F015FC064613E000F011FC801B41
:1016F00002280ED9206801F0D1FB002809D0A06D86
:1017000010210843A065E06D01210843E065012038
:10171000FEBD206801F0C2FB0028E6D12068C16848
:10172000019A1143C160A06D80088000401CA06533
:101730002F750298FEBD00000380000000F2020039
:10174000E8FFFF7FF8B500270646044640360097BD
:10175000307D0D4601280FD001203075206801F042
:10176000A1FB00280AD0A06D20210843A065012715
:10177000002030753846F8BD0220F8BD68680228A0
:101780007ED001222169D207914202D0121D9142DE
:1017900006D120682968826A4903490B0A436EE032
:1017A000C206D20E0F20216E904081432868430369
:1017B00002D0C3074BD102E04000C00E48E08307CF
:1017C00001D5012044E0430701D5022040E0030792
:1017D00001D503203CE0C30601D5042038E0830690
:1017E00001D5052034E0430601D5062030E003068C
:1017F00001D507202CE0C30501D5082028E083058A
:1018000001D5092024E0430501D50A2020E0030585
:1018100001D50B201CE0C30401D50C2018E0830483
:1018200001D50D2014E0430401D50E2010E003047F
:1018300001D50F200CE0C30301D5102008E083037D
:1018400001D5112004E0400301D5122000E0002062
:101850009040014321666968E2698808401C904213
:1018600010D820682B68826A9C46C906C90E0F23CF
:101870008B409A4363469B001B0F8B401A4300E04A
:101880003BE082622168AB6828684A6900028243B3
:1018900018404001400902434A612868002800DBE3
:1018A00066E72B4A116807239B051940294B98428C
:1018B00014D10B0212D4C0020143104601F0FEFA0B
:1018C000264825490068FEF77BFC0C21401C484354
:1018D00000E0401E00900028FBD149E7204B9842D1
:1018E00003D1CB0101D4800205E01E4B9842D7D131
:1018F0004802D5D45802014325E001212069C907D7
:10190000884202D0091D884206D120682968826A6F
:101910004903490B8A43826228680028C0DA0C4ACE
:10192000116807239B0519400A4B984201D1C00258
:1019300008E00B4B984201D1800203E0094B98422A
:10194000AED140028143104601F0B8FA10E7000022
:1019500008270140001000B0400D03000C000020DB
:10196000004000B8002000B4704770477047000086
:10197000FEB50027044601973E46029700970028CF
:1019800005D02546A06D2035002802D007E00120B3
:10199000FEBD204600F0FCF8E665542006552068A0
:1019A0008168C900C90F12D18168724A11400122B1
:1019B00012071143816071486F490068FEF700FC0F
:1019C0004000801C00E0401E00900028FBD12068F1
:1019D0008168C900C90F08D1A16D10221143A1650A
:1019E000E16D01221143E165174601F05BFAA16D3B
:1019F000C90601D4002804D0A06D10210843A065B9
:101A0000B4E0A06DFF210131884302210843A065A5
:101A1000206801F03FFA00286DD1217EA06889037B
:101A20000843617ECA03A17E4B031A431043226B15
:101A3000002A01D0012212031043E26810432269F8
:101A4000002A02DA5200520801E001225205104336
:101A50002A7B52001043019A10432A78012A09D1A7
:101A6000002922D0A16D20221143A165E16D012240
:101A70001143E165616A002906D0FF23C133194093
:101A8000A26A0143104608432168CA683C4B1A40C9
:101A90000243CA606168029A890F8907E06C0A43B1
:101AA00010432A7F012A04D00CE0012109040843D5
:101AB000E0E7636C226C491C1A43A36C0B4311468C
:101AC0001943084321680A692E4B1A4002430A61F0
:101AD00003216068890788420DD0590788420AD0DF
:101AE0004900884207D0284A91680F239B049943F4
:101AF0001840014391600021626B206801F0E5F914
:101B00002249A26B206801F0E0F90F202169C0434F
:101B100000291CD00122520591420AD121688A6A0B
:101B2000227F9200121FD206D20E9040226E1043E6
:101B3000886220684069616B4007400F88420BD182
:101B4000E665A06D80088000401CA0650FE021685C
:101B50008A6A02438A62ECE7A06D02218843102161
:101B60000843A065E06D01210843E0650127384680
:101B7000FEBD0000E8FFFF7F400D03000C000020C9
:101B80000102FEFF02FCFF1F0027014004FFFF07C8
:101B900070470000F7B50446006801F083F900289B
:101BA00045D125464035287D012840D001272F7595
:101BB0002068C1681F4EC9070CD101F06BF90028DD
:101BC00004D0206881683140891C81602068C16828
:101BD0003943C1602046FFF711FB002826D1A06DD4
:101BE00015490840FF2101310843A0650020E06548
:101BF000226D1249D162226D11491163226D114982
:101C0000516322681C2111602875206841681022E8
:101C1000114341602168206D4031029B019A00F020
:101C200065F821688A683240121D8A60FEBD022074
:101C3000FEBD0000E8FFFF7FFEF1FFFF95100008EA
:101C40002F1100081511000870B504003FD0254879
:101C5000256814212818FEF7B3FA800020640220BA
:101C600026462036707128681F4908402860E168C0
:101C7000A06862690843216911430843A1690843C8
:101C8000E1690843216A084321680A681043086033
:101C90002046FFF7C1FB0121A06889030025884287
:101CA00000D165602079616C8006800E0860A06CB0
:101CB000E16C41606068401E03280AD82046FFF7A7
:101CC000C3FB206D0560606DA16D416004E00120E3
:101CD00070BD25656565A565E56301207071357189
:101CE000002070BDF8FFFDBF0F80FFFFF8B5044670
:101CF0008C4620300179002501290BD00126067180
:101D000041790027012907D08021E163077101256E
:101D10002846F8BD0220F8BD02214171E763206822
:101D2000016849084900016061462046FFF7A0FBB1
:101D3000206B00282068016801D00E2205E00422F3
:101D400091430160206801680A2211430160606CC0
:101D50000168CA03074902D502680A430260206D80
:101D6000002802D002680A430260206801683143FB
:101D70000160CDE70001000070B5044600F0C8F82E
:101D80000546601C02D004480078241800F0C0F812
:101D9000401BA042FAD370BD00000020F0B5002324
:101DA00003249AE02A4601259D402A407ED00E79E0
:101DB000B607B60F012E01D0022E16D1866827462F
:101DC000B4465E00B646B7406646BE43B446CF68EA
:101DD0007646B7406646374387604668AE430D791E
:101DE000ED06ED0F9D40354345600D79ED43AD07A0
:101DF00008D0C5685F002646BE40B5438E68BE4029
:101E00002E43C6600D79AD07AD0F022D0ED1DD0852
:101E1000AD002D18AC462D6A5E07F60E0F27B740B1
:101E2000BD430F69B7402F4365462F6205685F00C9
:101E30002646BE40B5430E79B607B60FBE402E43C8
:101E400006604D68AD03AD0F46D09E08264DB60026
:101E50007519AC462D6E9E07F60E0F27B740BD4391
:101E600005273F07B84201D100270FE01F4FB842B6
:101E700001D101270AE01E4FB84201D1022705E037
:101E80001C4FB84201D1032700E00527B7402F437C
:101E9000154D664637662D684E689543F60200D5A7
:101EA0001543114F3D607D68954300E014E04E6896
:101EB000B60200D515437D600B4D80356E684F68C6
:101EC0009643BF0300D516436E602E684F68964355
:101ED000FF0300D516432E605B1C0A681546DA40E6
:101EE00000D05FE7F0BD0000001802400004005081
:101EF00000080050000C00500069084000D001208C
:101F00007047002A01D081617047816270470000EC
:101F10000148806870470000000000200248816886
:101F200002788918816070470000002010B50848C9
:101F300000240168821511430160032000F00AF8B3
:101F4000002801D0012401E000F028F8204610BD4F
:101F50000020024070B50F4E00243178054600295C
:101F600015D07D20C000FEF72BF901460A48006815
:101F7000FEF726F900F048FB002808D1042D06D210
:101F800000222946401E00F02BF8756000E0012475
:101F9000204670BD000000200C00002008B5094854
:101FA000016801221143016000681040009005485B
:101FB0004038C26B01040A43C263C06B0840009002
:101FC00008BD000040100240002805DBC106C90E14
:101FD00001208840014908607047000000E100E0EE
:101FE00010B501F05FFD10BD10B50F4C2168032244
:101FF0005202914301432160C11FFF39FA390ED1CA
:102000000A480621006848430949FEF7D9F8401CF0
:1020100002E0002805D0401E61694905F9D400207E
:1020200010BD032010BD0000007000400C00002017
:1020300040420F00F8B50F46060043D04D4D2868CA
:102040004007400FB84213D22868C008C000384388
:102050002860FFF75DFF044605E0FFF759FF011B0D
:102060004548814261D828684007400FB842F4D102
:102070003068424C81070DD5400704D5A068072180
:1020800009030843A060A0680F2109028843B168D2
:102090000843A0603078C00732D0706801280AD0A9
:1020A00002280BD000280FD03449403103280ED02D
:1020B000C969890704E02168890301E02168890171
:1020C000002906DB0120F8BD21684905F8E7096A07
:1020D000EFE7A168C908C9000143A160FFF718FF35
:1020E000009006E0FFF714FF0099411A2248814250
:1020F0001BD8A068382108407168C9008842F1D116
:1021000028684007400FB84217D91A480168C90823
:10211000C90039430160FFF7FBFE054607E0FFF702
:10212000F7FE411B1448814201D90320F8BD114834
:1021300000684007400FB842F1D13078400706D51B
:10214000A068072109038843F1680843A06000F0F4
:102150001DF8A1683C2289091140094A515CC90651
:10216000C90EC8400749086007480068FFF7F2FE3B
:10217000F8BD00000020024088130000001002405B
:10218000E04600080C0000200400002010B5204CA0
:10219000A068204A8006400F16D0A0688006410F34
:1021A000501001290FD0A1688906490F022912D0C9
:1021B000A0688006400F042823D0A0688006400F46
:1021C000032821D0002010BD206801218004400F89
:1021D0008140104612E0E1688B07E1689B0F4906D9
:1021E000490F491C032B00D01046FDF7E9FFE168B9
:1021F0004904490E4843E168490F491CFDF7E0FFD7
:1022000010BD0120C00310BD7D20000210BD0000E4
:10221000001002400024F400F8B504007ED02078BD
:102220003827C007E94D002846D0A868E96838403B
:102230008907890F102802D008280BD001E0032954
:1022400008D001206268000482420AD12968014353
:10225000296015E0286880032ED560680028DDD04D
:102260002AE0052301211B0489049A422A6802D12D
:102270000A432A60EAE782432A6028688843286084
:10228000606800280CD0FFF743FE064604E0FFF725
:102290003FFE801B642873D828688003F7D50BE0C5
:1022A000FFF736FE064604E0FFF732FE801B642887
:1022B000F1D828688003F7D42078800769D5A8680A
:1022C000E96838408A070721920FC902102802D016
:1022D000002813D001E0022A10D0E068002846D080
:1022E000286888432169084328602868FF21013154
:1022F00008432860FFF70CFE06462CE02A685205CA
:1023000002D5E268002A89D06A687F231B029A43BB
:1023100063691B021A436A60002800E08DE00ED159
:1023200028688843216908432860286801218004BF
:10233000400F8140A648FDF743FFA6490860A64824
:102340000068FFF707FE002877D122E0FFF7E0FDE5
:10235000801B02289FD828684005F7D568687F2130
:1023600009028843616909020843686011E029682D
:10237000FF20013081432960FFF7CAFD064605E0D2
:1023800098E0FFF7C5FD801B022884D82868400527
:10239000F7D42078914E00072ED5A8688006400F0C
:1023A00003280AD0A0690028306A16D0012108430A
:1023B0003062FFF7ADFD07460BE0306A80071BD5A2
:1023C000A06900289FD017E0FFF7A2FDC01B0228DC
:1023D00070D8306A8007F7D50EE0400840003062C0
:1023E000FFF796FD074604E0FFF792FDC01B0228A9
:1023F00060D8306A8007F7D4207840076CD5A86889
:1024000000278006400F042818D0E86BC00008D4CD
:10241000E96B012000070143E963E96B01400127F3
:1024200000916F480168C90519D4016882151143EC
:102430000160FFF76DFD00900DE083E0F06980071B
:102440004AD5A06800287DD046E0FFF761FD0099DD
:10245000401A02282ED862480068C005F5D5A16848
:10246000012910D004200529F16911D0490849003B
:10247000F161F1698143F161A068002816D0FFF78E
:1024800047FD00900EE0F06901210843F061F3E799
:102490000143F161F7E7FFF73BFD0099411A51480D
:1024A000814265D8F0698007F5D50EE0FFF730FD71
:1024B000009007E05CE0FFF72BFD0099411A4948C6
:1024C000814255D8F0698007F5D4002F04D0E96B1C
:1024D000012000078143E963E069002873D0A968FF
:1024E0008906490F02294DD00126360602282868A0
:1024F00005D0B0432860FFF70BFD04463AE0B04337
:102500002860FFF705FD074604E0FFF701FDC01B4B
:1025100002282DD828688001F7D4616A206AA26A4F
:102520000843E16A120211430843216B0843E9683A
:102530002D4A11400843E860286830432860E86865
:10254000012100E03DE009070843E860FFF7E0FCF7
:10255000044604E0FFF7DCFC001B022808D82868CA
:102560008001F7D52FE0FFF7D3FC001B022801D92B
:102570000320F8BD28688001F5D4E8681B490840AD
:10258000E86020E00128F4D0E868226A8107890F1A
:10259000914216D17021626A0140914211D17F218E
:1025A000A26A09020140120291420AD11F21490484
:1025B000E26A0140914204D1400F216B40078842FA
:1025C00001D00120F8BD0020F8BD0000001002403D
:1025D0000024F4000C000020040000204010024001
:1025E00000700040881300008C80C11FFCFFFEEFCC
:1025F000042204490428086902D090430861704706
:102600001043FBE700E000E0094910B5401E884296
:1026100001D9012010BD074C60610321081F01F0A2
:1026200041FA0020A06107202061002010BD0000B9
:10263000FFFFFF0000E000E07047704770470000B8
:10264000F0B5034620331A7F012A24D001221A77DD
:1026500002225A7704686268A568104FBC4205D10F
:1026600016460F22120596434A6832437026B2433B
:102670000E68164366600068B84202D0084A90426D
:1026800004D18022896895432943816001205877CD
:1026900000201877F0BD0220F0BD0000002C0140A2
:1026A0000004004070B5040005D025462035687F41
:1026B000002802D006E0012070BD002028772046C7
:1026C00000F016F802206877211D206801F036F925
:1026D000012240342272AA77EA7722706270A270D7
:1026E000E27022716271A271E2716A77002070BD9E
:1026F00070470000014620314A7F012A01D00120A5
:10270000704702224A770168CB6801221343CB60ED
:1027100000680949884202D00849884207D1816887
:10272000074B1940062905D0DB1F994202D00168EA
:102730001143016000207047002C0140000400405C
:1027400007000100F8B5054604462035287F00261D
:10275000012817D001272F77022068772268906818
:102760002F4B1840FF231B029843906008685028A5
:1027700038D00EDC20284FD006DC00284CD01028A2
:102780001ED149E00220F8BD302845D0402817D19D
:102790003AE060282ED0702818D001221203801A47
:1027A0000FD090420CD1CB684A688968206801F04C
:1027B00001F920688168012292031143816000E0E1
:1027C00001266F77002028773046F8BDCB684A682D
:1027D0008968206801F0EEF8216888687722104344
:1027E0008860EEE7CA684968206801F0F9F850216E
:1027F000206806E0CA684968206801F002F9602193
:10280000206801F0E3F8DCE7CA684968206801F055
:10281000E7F840212068F4E7226801461046F0E717
:1028200088FFCEFF7047000070B50446006801695C
:102830000025C9438907002915DBC168C9438907F9
:1028400011D4E91E0161012020772068806980078A
:10285000204602D0FFF7E6FF04E000F0A7F820468C
:1028600000F0A5F8257720680169C943490717D406
:10287000C168C943490713D40421C9430161022037
:102880002077206880698005800F204602D0FFF7FE
:10289000C9FF04E000F08AF8204600F088F82577A8
:1028A00020680169C943090716D4C168C9430907EB
:1028B00012D40821C9430161042020772068C0692F
:1028C0008007204602D0FFF7ADFF04E000F06EF86D
:1028D000204600F06CF8257720680169C943C906D5
:1028E00017D4C168C943C90613D41021C943016173
:1028F000082020772068C0698005800F204602D01C
:10290000FFF790FF04E000F051F8204600F04FF888
:10291000257720680169C943C90708D1C168C9433F
:10292000C90704D1891E0161204600F041F82068E2
:102930000169C943090609D4C168C943090605D418
:102940008021C94301612046FFF777FE20680169B5
:10295000C943C90508D4C168C943090604D412494A
:1029600001612046FFF768FE20680169C9434906F6
:1029700009D4C168C943490605D44021C94301614E
:10298000204600F09FF820680169C943890609D4F0
:10299000C168C943890605D42021C9430161204685
:1029A000FFF74CFE70BD0000FFFEFFFF7047704751
:1029B000F8B500683749384C384D394E884268D1EF
:1029C0006088FEF708F92A463346FEF707F9002229
:1029D000344BFDF78FFE344A344BFEF7FFF8344A90
:1029E000344BFDF764FE0022134601F03FFD50D248
:1029F000314F00213888401C80B23880F8613C2873
:102A000003D3B869401CB8613980B8693C2803D346
:102A10007869B961401C78616088FEF7DCF81F4A6C
:102A20001F4BFEF7DBF81F4E00223346FDF762FE18
:102A30001D4A1E4BFEF7D2F80022204BFDF75AFE2E
:102A4000FDF76EFC054678602946B86801F042FD46
:102A5000B8602088FEF7BFF8104A114BFEF7BEF8A9
:102A600000223346FDF746FE04460E462846FEF792
:102A7000D9F922463346FEF7B1F80022104BFEF793
:102A8000ADF8FDF74DFC0146F860386901F022FD14
:102A90003861F8BD002C01401000002066666666B3
:102AA00066660A4000FEAF40A301BC051214F83F61
:102AB0000AD7A3703D0AB73FD80100200020AC40E0
:102AC000000037407047FEE770B50020FEF750FD6C
:102AD0000122052516022D0731462846FFF711FA77
:102AE000022001F001F807E0641CE4B2FA2C03D9DB
:102AF00000F0C8F8012070BD80212846FFF7FCF9DE
:102B00000028F1D1002231462846FFF7FAF90220C9
:102B100000F0EAFF002070BD70B5FF2405250134E8
:102B20002D07002221462846FFF7EBF90120FEF78A
:102B30001FFD012280212846FFF7E3F9022000F063
:102B4000D3FF012221462846FFF7DBF9022000F0DF
:102B5000CBFF002221462846FFF7D3F970BDF8B518
:102B60000020FEF705FDFF260025013605273F075B
:102B7000002231463846FFF7C4F9022000F0B4FFC6
:102B8000012231463846FFF7BCF96006040E802169
:102B90003846FFF7B1F9002801D0641CE4B20120E7
:102BA00000F0A2FF6D1CEDB2082DE1D32046F8BD68
:102BB000F8B5054600240120FEF7DAFCFF260527BC
:102BC00001363F07002231463846FFF79AF9E809F7
:102BD00001D0012200E0002280213846FFF791F960
:102BE0006806050E022000F07FFF012231463846BC
:102BF000FFF787F9022000F077FF002231463846C0
:102C0000FFF77FF9022000F06FFF641CE4B2082C8C
:102C1000DDD3F8BD70B501220D4D54022146284682
:102C2000FFF76FF9012280212846FFF76AF900F0CB
:102C300085F8002221462846FFF763F900F07EF868
:102C4000002280212846FFF75CF900F077F870BD7C
:102C50000004005070B50124094D64020022214691
:102C60002846FFF74EF9012280212846FFF749F94F
:102C700000F064F8012221462846FFF742F970BDB2
:102C80000004005010B50120FEF772FC0524240753
:102C9000002280212046FFF734F9042000F024FFB1
:102CA000012211022046FFF72CF9042000F01CFF3E
:102CB000012280212046FFF724F9042000F014FFB0
:102CC00010BD70B50120FEF753FC0122052514024A
:102CD0002D0721462846FFF714F9012280212846B6
:102CE000FFF70FF9042000F0FFFE002280212846A4
:102CF000FFF707F9042000F0F7FE002221462846DE
:102D0000FFF7FFF870BD000010B50B4C0122510217
:102D10002046FFF7F6F800F011F801228021204646
:102D2000FFF7EFF800F00AF8002280212046FFF7B5
:102D3000E8F800F003F810BD00040050032001463D
:102D4000401EC0B20029FAD170470000F8B505272F
:102D50003F0710213846FFF7CFF84B4D4B4E4C4CF8
:102D6000002817D1A078002802D0012802D00AE05C
:102D7000012200E000220121C9023846FFF7C1F814
:102D80006420FEF7F9FF00F0B9F82878C000801938
:102D90004078287020213846FFF7AEF800282FD160
:102DA000A078002802D0012802D00AE0012200E029
:102DB00000220121C9023846FFF7A3F86420FEF77C
:102DC000DBFF00F049FD2878012807D12078002892
:102DD00008D0002121700120FEF703FB287802288B
:102DE00002D006E00121F5E7607800280FD000202E
:102DF000607000F083F82878C0008019807828700F
:102E000040213846FFF778F8002802D01EE0012064
:102E1000EEE70122D1023846FFF773F8A0780028C8
:102E200002D0012802D00AE0012200E000220121A4
:102E3000C9023846FFF765F86420FEF79DFF00F0F1
:102E40005DF82878C0008019C07828700121002220
:102E5000C9023846FFF755F800F042F800F0A8F92B
:102E600010213846FFF748F80028F9D020213846CD
:102E7000FFF742F80028F9D040213846FFF73CF828
:102E80000028F9D0F8BD0000780100208001002062
:102E9000D00100208068C007C00F70478068C0075D
:102EA000C00F704780684007C00F7047C0680005BA
:102EB000800F01D00020704701207047026807236F
:102EC0009B059A430A430260704710B54369042486
:102ED000214007248C40A3438A401343436110BD23
:102EE000044908780A46C0000832801840684860E3
:102EF0000047000078010020FEE7000010B5002127
:102F0000094B0A4600208400E418401CC0B26254F9
:102F10008028F8D3491CC9B20429F3D30120FEF755
:102F20002BFF00F045F910BDFC01002010B5002872
:102F300006D0012803D10021A72000F0FDFB10BD21
:102F40000021A620F9E710B500280AD0012807D1F2
:102F50000021C02000F0F0FB0021A02000F0ECFBDD
:102F600010BD0021C82000F0E7FB0021A120F5E7FB
:102F7000F0B587B00024151A01905E1A601E27462E
:102F800004940091002D01DD012108E0002D05D001
:102F90006D420390002E04DD01200BE0002103911F
:102FA000F8E7002E05D06E420290B54204DD2C46B3
:102FB00003E000200290F8E7344600200590601CF2
:102FC000069005981DE000980C9AC1B20198C0B215
:102FD00000F01CF80498BF1940190490A04205DDC8
:102FE000001B04900399019840180190A74204DD4A
:102FF000029900983F1B401800900598401C80B231
:10300000059006998842DEDB07B0F0BD30B5CC08EC
:103010004B075B0F01259D40EBB2074D8000451922
:10302000C808285C002A01D0184302E0C0431843B6
:10303000C043285530BD0000FC010020FFB581B021
:1030400001981C460A9E85180F460096EAB20B4668
:10305000FFF78EFF019A3C19E3B2009639461046FD
:10306000FFF786FFE3B2EAB2E1B200960198FFF7FC
:103070007FFF641CE3B2EAB2E8B239460096FFF77C
:1030800077FF05B0F0BD000030B5424887B0426B15
:1030900002210A434263406B052408400590012049
:1030A00001900320039000203B4DE4010290009426
:1030B00069462846FEF772FE012221462846FEF7A1
:1030C00020FF0021AE2000F037FB0021084600F071
:1030D00033FB0021102000F02FFB0021084600F0F8
:1030E0002BFB0021B02000F027FB0021812000F005
:1030F00023FB0021FF2000F01FFB0021A12000F096
:103100001BFB0021A62000F017FB0021A82000F0E7
:1031100013FB00211F2000F00FFB0021C82000F04E
:103120000BFB0021D32000F007FB0021084600F034
:1031300003FB0021D52000F0FFFA0021802000F0E1
:10314000FBFA0021D92000F0F7FA00211F2000F03F
:10315000F3FA0021DA2000F0EFFA0021084600F02F
:10316000EBFA0021DB2000F0E7FA0021402000F01C
:10317000E3FA00218D2000F0DFFA0021142000F096
:10318000DBFAFFF7BBFE0021AF2000F0D5FA07B055
:1031900030BD000000100240000400500246012033
:1031A00000E050430B46491EC9B2002BF9D17047CD
:1031B00070B5174E00242046B030C0B2002100F098
:1031C000BBFA0021084600F0B7FA0021102000F0F9
:1031D000B3FAFFF71FFD782000F002FBFFF794FD24
:1031E000402000F0FDFAFFF78FFD0025A8008019B0
:1031F000005D00F0F5FAFFF787FD6D1CEDB2802D44
:10320000F4D3FFF727FD641CE4B2042CD3D370BDC4
:10321000FC010020FFB589B00998079058081C46AA
:103220000E4605910690082B0DD0E008610700D0EE
:103230000121401806994843C0B2203A0190D0B20B
:103240000390002047E00620F7E7082C11D00C2C53
:1032500014D0102C17D0182C41D1039824214843A6
:1032600021494118009800270D5CE8070FD0129AF9
:1032700011E00398062148431C49F2E703980C210A
:1032800048431B49EDE703981A490001E9E7129802
:10329000002826D0002231460998FFF7B7FE761C99
:1032A0007F1C6D08FFB2F6B2082FDED30998401CD0
:1032B000C0B20990082C0AD00799411A0698814299
:1032C00005D10798099005980830C0B2059000987C
:1032D000059E401CC0B2019900908842B5D30DB044
:1032E000F0BD0122D7E70000AC53000820470008DA
:1032F00048490008BC4D0008FFB587B00798059005
:103300000A980E460491C108400700D00120081811
:103310000A9948430024019043E00A9810280FD0EE
:10332000182811D0202815D040283DD109982049CF
:1033300040024018055D0027E80710D0109A12E0FF
:1033400009981C494001F4E7099848214843194964
:103350008031EEE709981649C0018039E9E71098F5
:10336000002823D0002231460798FFF74FFE761C35
:103370007F1C6D08FFB2F6B2082FDDD30798401C02
:10338000C0B2014607900598091A0A98814205D1F2
:103390000598079004980830C0B20490641C049EFD
:1033A000A4B201988442B8D30BB0F0BD0122DAE791
:1033B0005062000808610008FFB583B00C991D46F3
:1033C0004F081F49104601F0CBF8FDF755FD80B2BC
:1033D0000024019030E0281B401EC1B20A20FFF7F4
:1033E000DDFE01460198FCF7EBFE0A21FCF7E8FE42
:1033F000E81E0E4684420FD10D99039A009178433E
:1034000004998018C9B2C0B22E220C9BFFF702FFAC
:10341000641C6D1CE4B2EDB20D9800900498039BFF
:10342000C1B220467843C0183036F2B2C0B20C9B0D
:10343000FFF7F0FE641CE4B2AC42CCD307B0F0BDA1
:1034400000007A44F0B51FB482B00D9816461946B4
:10345000470800221F4B30460C9DFDF7BFFBFDF7D0
:103460006DFB0024019030E0281B401EC1B20A20F1
:10347000FFF794FE01460198FCF7A2FE0A21FCF733
:103480009FFE281F0E4684420FD10E99029A00918A
:10349000784303998018C9B2C0B22E220D9BFFF762
:1034A000B9FE641C6D1CE4B2EDB20E980090039856
:1034B000029BC1B220467843C0183036F2B2C0B287
:1034C0000D9BFFF7A7FE641CE4B2AC42CCD307B05F
:1034D000F0BD00000088C340F0B51FB482B00D9865
:1034E00016461946470800221F4B30460C9DFDF733
:1034F00075FBFDF723FB0024019030E0281B401EE4
:10350000C1B20A20FFF74AFE01460198FCF758FEB7
:103510000A21FCF755FE681F0E4684420FD10E9912
:10352000029A0091784303998018C9B2C0B22E2242
:103530000D9BFFF76FFE641C6D1CE4B2EDB20E989C
:1035400000900398029BC1B220467843C0183036E1
:10355000F2B2C0B20D9BFFF75DFE641CE4B2AC4258
:10356000CCD307B0F0BD0000006AF840FFB583B0CF
:103570000C991D464E0820491046B61C00F0F0FF7D
:10358000FDF77AFC80B20024019030E0281B401E39
:10359000C1B20A20FFF702FE01460198FCF710FEB7
:1035A0000A21FCF70DFEE81E0F4684420FD10D994B
:1035B000039A0091704304998018C9B2C0B22E22B8
:1035C0000C9BFFF727FE641C6D1CE4B2EDB20D9856
:1035D00000900498039BC1B220467043C018303756
:1035E000FAB2C0B20C9BFFF715FE641CE4B2AC4209
:1035F000CCD307B0F0BD000000007A44FFB581B025
:103600000A9800251E46082800D1022500244708F4
:103610001DE0301B401EC1B20A20FFF7BFFD01466E
:103620000398FCF7CDFD0A21FCF7CAFD0B98002991
:10363000009010D03031CAB2781901996043401817
:103640000A9BC0B20299FFF7E5FD641CE4B2B442E4
:10365000DFD305B0F0BD7819019960434018C0B2BE
:1036600030220A9BEEE7FFB584B000200290049858
:1036700001900C460091D808590700D0012140184C
:103680000790002033E000262BE002990D98475C5C
:10369000481C80B200250290F80701D00E9A03E082
:1036A0000E98002829D0002221460498FFF7AEFC8E
:1036B000641C6D1C7F08EDB2E4B2082DECD30498B5
:1036C0000199401CC0B20490411A0698814205D16C
:1036D0000198049000980830C0B20090761C009CBD
:1036E000F6B206988642D0D30398401CC0B2079920
:1036F00003908842C7D308B0F0BD0122D4E7FFB5DC
:1037000081B01E46154604465F080BE00A980090FB
:10371000334620460299FFF77DFD082E09D038195F
:10372000C4B26D1C2A78104620385E28EED905B048
:10373000F0BDA41DE4B2F4E770B50C460546FFF7F2
:1037400069FA782000F04CF8FFF7DEFA002C01D07F
:10375000402000E0002000F043F8FFF7D5FA2846AB
:1037600000F03EF8FFF7D0FAFFF774FA70BD70472B
:10377000F8B5164600920C4605460E232122FFF7A7
:103780005DFCA01CC1B2E81CC0B20A230E22009648
:10379000FFF754FCE41C2D1DE1B2E8B208230D2212
:1037A0000096FFF74BFCF8BDF8B5154600920C46A5
:1037B00006460E232122FFF741FCA01CC1B21036A1
:1037C000F0B20A230E220095FFF738FCE41CE1B2A8
:1037D000F0B208230D220095FFF730FCF8BD7047CA
:1037E000F8B500240127104E05467F02280601D5B2
:1037F000012200E0002239463046FEF782FBFFF747
:103800009DFA012280213046FEF77BFBFFF796FAF6
:10381000002280213046FEF774FB6806641C050E0A
:10382000E4B2082CE2D3F8BD0004005010B501202A
:10383000FDF7B9FD074C20700320FDF7B4FDA07023
:103840000420FDF7B0FDE0700520FDF7ACFD207110
:1038500010BD0000D001002070B5154D154C287822
:10386000052807D1A078002808D00021A1700320E6
:10387000FDF7B7FD2878062802D009E00121F5E719
:10388000E078002810D00021E1700420FDF7A9FDA8
:103890002878072807D12079002807D00021217136
:1038A0000520FDF79EFD70BD0121EDE70121F6E742
:1038B00078010020D001002010B5FEF72FFB10BDCD
:1038C00030B591B034216846FCF778FC0025012022
:1038D0000D950E950F9540021095FEF785FB02247D
:1038E000E001039000944020059008200A90800396
:1038F0000B900794000304950C9009950894684672
:10390000FEF78AFC002801D072B6FEE707200DA959
:1039100031C102210DA81095FEF78CFB002801D0C3
:1039200072B6FEE711B030BD7047000010B5024816
:10393000FEF77AFF10BD00001405002070B5026884
:10394000174B184E984201D0B04203D17024A243C5
:103950004C682243144C154D984208D0B04206D012
:10396000134EB04203D0A04201D0A84204D1032696
:103970003602B243CE6832438026B2434E693243A8
:1039800002608A68C2620A688262984203D0A042DA
:1039900001D0A84201D1096901630121416170BDD3
:1039A000002C014000040040004401400048014058
:1039B0000020004030B58468FF252D021B02134310
:1039C000AC430B432343836030BD00008268034B4C
:1039D0001A400A4307210A43826070478FFFCFFFD6
:1039E00030B5036A046A6408640004628469F025DF
:1039F000AC43120122430A24A3430B4382610362B6
:103A000030BD30B5036A1024A34303628469036A9E
:103A10000F252D031203AC432243A024A343090125
:103A200019438261016230BD10B5194888B002683F
:103A3000C1140A4302600068002408400790164839
:103A4000144901601549846041600461144944616E
:103A5000C16080218161FEF725FE012000030390F3
:103A600003A90D48FEF76EFE009469460A480294C9
:103A7000FEF7E6FD012202210D20FEF7B1FA0D202E
:103A8000FEF7A2FA0448FEF735FE08B010BD0000AC
:103A900040100240002C014014050020FF180000D7
:103AA0000F2700008307FF22DB0E9A408907090ECB
:103AB0009940002808DB830809489B001B181868F8
:103AC00090430843186070470007000F08388308C8
:103AD00004489B001B18D86990430843D86170477D
:103AE00000E400E000ED00E070B50A4C00236569D9
:103AF0000949A26909684843A1699142FCD09142F1
:103B000001D2521A01E06E1AB218D3180A46834243
:103B1000F2D370BD00E000E0F8010020FEF706FAE5
:103B2000FFF7CEFE4020FDF7C7FCFFF7ADFAFDF72B
:103B3000E5FCFDF7CBFCFDF72BFCFFF777FE10480B
:103B40000078FFF7F3F90F480078FFF7FCF90E480B
:103B500001210278052009030007FEF7D2F9FFF7DB
:103B600063FFFDF723FBFDF7A3FB08220749084885
:103B7000FEF710F8FFF7EAF8C820FEF7FDF8F9E7BE
:103B8000D3010020D4010020D0010020100000202B
:103B900048040020FEB54148012400902023122251
:103BA000002101940720FFF75EFD0C233CA20221B7
:103BB00044200094FFF7A3FD3A4DA888FDF70BF8C9
:103BC000394F3A4B3A46FDF709F80022384BFCF7DB
:103BD00091FD0022374BFDF701F8FCF7A1FB0246EF
:103BE0000C2604230221512000960194FFF7BEFC0D
:103BF0000C2331A2022177200094FFF780FD0C23D3
:103C00002EA2132144200094FFF779FDE888FCF7E9
:103C1000E2FF3A46254BFCF7E1FF0022244BFCF77C
:103C200069FD0022234BFCF7D9FFFCF779FB024624
:103C300004231321512000960194FFF797FC0C23D5
:103C40001DA2132177200094FFF759FD1C4D1D4E36
:103C50002978012902D0002906D00FE0012209218C
:103C60001920FFF7A1FD04E0012209211920FFF727
:103C70007FFD2A7840213046FEF743F94023012298
:103C8000002118460094FFF7D9F9012380220F2163
:103C900040200094FFF7D2F9FEBD00007000002024
:103CA000442B0000100000206666666666660A40C7
:103CB00000FEAF400000374056000000442D0000D9
:103CC000D10100200004005038B50124002812D092
:103CD00001281CD002280DD11D23042201217820A7
:103CE0000094FFF7ABF908230022142100947A20F6
:103CF000FFF7A4F938BD1D23042201217820009488
:103D0000FFF79CF90823002203210094EFE71D230D
:103D10000422012178200094FFF790F90823002263
:103D20000B210094E3E700007CB501240C232FA2B3
:103D3000142103200094FFF7E2FC2D4D2878002881
:103D400002D0012810D01EE010232AA200210A2050
:103D50000094FFF7D4FC2878FFF7E8F80122114619
:103D60001C20FFF721FD0EE0102322A200210A20D3
:103D70000094FFF7C4FC2878FFF7D8F80122114619
:103D80001C20FFF7F5FC1C4D2878002802D00128E4
:103D900010D01EE0102319A219460A200094FFF744
:103DA000AEFC2878FFF7CFF8012211211C20FFF785
:103DB000FBFC0EE0102311A219460A200094FFF725
:103DC0009EFC2878FFF7BFF8012211211C20FFF785
:103DD000CFFC0220FFF778FF0948202300901A4605
:103DE000002101944820FFF73EFC7CBD3E0000000E
:103DF000D301002055490000D40100205274000076
:103E0000F80000207CB501240C232FA204210320FC
:103E10000094FFF774FC2D480078002802D0012898
:103E20000FD01DE02A48102300901A460221019469
:103E30000A20FFF718FC012211461C20FFF798FC0E
:103E40000EE023481023203000901A4602210194EE
:103E50000A20FFF708FC012211461C20FFF7A4FCF2
:103E60001C4D2878002802D0012810D01EE0102315
:103E700019A219460A200094FFF741FC2878FFF7A1
:103E800055F8012211211C20FFF78EFC0EE01023B3
:103E900011A219460A200094FFF731FC2878FFF799
:103EA00045F8012211211C20FFF762FC0020FFF7DA
:103EB0000BFF07482023403000901A460021019450
:103EC0004820FFF7D0FB7CBD3E000000D20100205F
:103ED000B8000020D3010020554900007CB5012422
:103EE0000C232FA2142103200094FFF708FC2D4877
:103EF0000078002802D001280FD01DE02A481023A6
:103F000000901A46022101940A20FFF7ACFB01221F
:103F100011461C20FFF72CFC0EE023481023203014
:103F200000901A46022101940A20FFF79CFB01220F
:103F300011461C20FFF738FC1C4D2878002802D0C1
:103F4000012810D01EE0102319A219460A2000945F
:103F5000FFF7D5FB2878FEF7E9FF012211211C208D
:103F6000FFF722FC0EE0102311A219460A2000944C
:103F7000FFF7C5FB2878FEF7D9FF012211211C208D
:103F8000FFF7F6FB0120FFF79FFE07482023403094
:103F900000901A46002101944820FFF764FB7CBD85
:103FA0003E000000D2010020B8000020D301002014
:103FB00055490000FEB501241023022200210C20E7
:103FC0000094FFF799F91023032200211C2000948C
:103FD000FFF792F90C252D48009501940268032300
:103FE0000E210120FFF70AFB0C2329A20E2113202A
:103FF0000094FFF784FB2748009501940268022390
:104000000E211920FFF7FAFA0C2321A20E212520F8
:104010000094FFF774FB2048009501940268022386
:104020000E212B20FFF7EAFA1C480068FCF7FAFE85
:10403000092602460B4602213B2000960195029478
:10404000FFF74AFA0C2316A2022171200094FFF711
:1040500056FB14480068FCF7E5FE02460B461421A7
:104060003B20009601950294FFF736FA0C230EA22E
:10407000142171200094FFF742FB012380221021BC
:1040800041200094FEF7DAFFFEBD0000EC010020A5
:104090003A000000F0010020F4010020E0010020BF
:1040A00041680000E80100205768000038B501248D
:1040B000002108230DA208460094FFF720FB0823E7
:1040C0000EA2194600200094FFF719FB082310A246
:1040D000102100200094FFF712FB082312A21821E0
:1040E00000200094FFF70BFB38BD0000566572738B
:1040F000696F6E7320312E310000000055706461CD
:1041000074656420323032332F312F3200000000CA
:104110004E616D652054313220476F6C64656E20AE
:1041200043726F7700000000417574686F72205809
:1041300069616F205869612000000000FEB501240C
:104140000C237AA2002102200094FFF7D8FA784DC0
:104150002888FCF740FD774A774BFCF73FFD0022AB
:10416000764BFCF7C7FA0022754BFCF737FDFCF7DE
:10417000D7F80C260246052300213046009601940C
:10418000FFF71AF90C2369A2002132200094FFF7EF
:10419000B6FA0C236BA20F2102200094FFF7AFFAAE
:1041A0006888FCF718FD634A634BFCF717FD002293
:1041B000624BFCF79FFA644A644BFCF70FFD644ABC
:1041C000644BFCF774FA0522009202460B460196F6
:1041D00002940F210C20FFF735F90C235EA20F216A
:1041E00032200094FFF78BFA0C235CA200214620BA
:1041F0000094FFF784FA2888FCF7EDFC4D4A4E4BFB
:10420000FCF7ECFC00224D4BFCF774FA00224C4BFF
:10421000FCF7E4FCFCF784F8514F386000906888A4
:10422000FCF7D9FC434A444BFCF7D8FC0022434B33
:10423000FCF760FAFCF774F801467860009800F02B
:104240008FF9B860024605230021502000960194A2
:10425000FFF7B2F80C2341A2002176200094FFF76B
:104260004EFA08233FA20C2147200094FFF747FA9B
:10427000A888FCF7B0FC2F4A2F4BFCF7AFFC0022BC
:104280002E4BFCF737FA00222D4BFCF7A7FCFCF76E
:1042900047F80246082604230C2153200096019477
:1042A000FFF764F9082321A20C2172200094FFF784
:1042B00026FA08232CA2162147200094FFF71FFAA4
:1042C000E888FCF788FC1B4A1B4BFCF787FC0022A4
:1042D0001A4BFCF70FFA0022194BFCF77FFCFCF796
:1042E0001FF8024604231621532000960194FFF77D
:1042F0003DF908230DA2162172200094FFF7FFF963
:104300004023022200213C200094FEF797FE022366
:10431000072200213A200094FEF790FE0223072294
:104320001E213A200094FEF789FEFEBD56000000D3
:10433000100000206666666666660A4000FEAF40B2
:104340000000374049000000D7A3703D0AD7FB3F6B
:104350008B6CE7FBA9F1B23F410000005700000061
:1043600008050020442B0000442D000010B5FFF785
:10437000E5FE10BD10B5FFF745FD10BD10B5FFF708
:1043800095FE10BD10B500F011F810BD10B5FFF787
:10439000CBFC10BD10B5FFF7A1FD10BD10B5FFF7A8
:1043A00009FE10BD10B5FFF7F5FB10BDFEB52D4899
:1043B0000024082300901A460C210194C820FFF71E
:1043C00052F928481E23083000901422002101943D
:1043D0000A20FFF748F9244D0826287807270128E6
:1043E00025D001242820052114233C220094FEF727
:1043F00025FE39462B200F2319220094FEF71EFEBE
:1044000031462C200E2318220094FEF717FE0120BF
:1044100010230246009008216920FEF76DFF01215C
:1044200005202A7809030007FDF76BFDFEBD012476
:104430002820052114233C220094FEF7FFFD394675
:1044400046200F2319220094FEF7F8FD314647203D
:104450000E2318220094FEF7F1FD01201023002204
:104460000090D8E718000020D001002070B5012589
:104470001C002D050C4310D4EC4206D4AC420AD4E7
:104480008B4200D070BD824270BDEB4217D4E9422E
:1044900015D48B4270BD9B4270BDEC4206D5AC4238
:1044A000F9D5994200D070BD904270BD6D005C009E
:1044B000EC4204D24C00EC4201D2994270BD0FB4E0
:1044C000034C0CBC03BC30B4FCF7EEFC30BC70BD3C
:1044D0001900160470B501250400ED074C4020D4E6
:1044E000441A01D2001B0919C60D4B00F2B2FF2A73
:1044F00029D01B0E2CD000020C02D31A2C43DC4016
:104500002843051910D2280A02D3401C6D0611D089
:10451000761EF6058019FF2A00DA70BDC00DC005B1
:1045200070BD694000F07AF801200543C541521C76
:10453000761CE8E764089C40C90161408900E7D126
:104540000124A043E4E71B0E440200D0034870BDE1
:10455000002AFCD1C00FC00770BD00BF0000C07FA3
:1045600070B5420064414B005C41120E39D01B0E05
:1045700038D0FF2A3CD0FF2B3AD040024902400AF3
:10458000490A060045184E43000A090AD218484352
:10459000ED017F3A0104731A4019190C4318990F61
:1045A00004D001215B0849075B1A521CD80904D3C7
:1045B000401CF50301D19D0607D0FF2A08D2D5057E
:1045C00006D0E4072043401970BD0125A843F4E755
:1045D000002A01DCE00770BD2402FF202043C00553
:1045E00070BD1B0EFF2A03D0FF2B01D0E00770BD6A
:1045F000FF2645003606B54206D84D00B54203D821
:10460000D218FF2A00D0E7E7004870BD0000C07F45
:1046100070B501250400ED074C4022D4441A02D2A3
:104620006C40001B0919C60D4B00F2B2FF2A4BD09B
:104630001B0E50D000020C02D31A2C43DC40A843BE
:10464000051B05D5AD0019D36D08761E521E37D057
:10465000F605280A01D2801970BD70416D0603D09D
:1046600070BD6940FFF73CFF9C4009026140490072
:1046700001D0401E70BD0124A04370BD6D081DD047
:1046800001202B0C01D12D0410302B0E01D12D0255
:1046900008302B0F01D12D01001DAB0F01D1AD0052
:1046A000801CEB0F01D16D00401C6D00361A121AF0
:1046B000680AF5054019012A02DB70BD002070BDB3
:1046C000C036300AC00770BD1B0E440201D1FF2B5B
:1046D00000D1024870BD002AF0D070BD0000C07F3C
:1046E00000000000000000000000000000000000CA
:1046F00000000000000000000000000000000000BA
:10470000010000000200000003000000040000009F
:10471000060000000700000008000000090000007B
:104720000000000000000000002F00000000070053
:10473000070000147F147F1400242A7F2A120062CD
:104740006408132300364955225000000503000079
:1047500000001C224100000041221C000014083E01
:1047600008140008083E0808000000A060000008C7
:10477000080808080000606000000020100804021B
:10478000003E5149453E0000427F400000426151D9
:104790004946002141454B31001814127F10002773
:1047A00045454539003C4A49493000017109050336
:1047B00000364949493600064949291E0000363667
:1047C00000000000563600000008142241000014CA
:1047D00014141414000041221408000201510906A7
:1047E00000324959513E007C1211127C007F494928
:1047F0004936003E41414122007F4141221C007F59
:1048000049494941007F09090901003E4149497A66
:10481000007F0808087F0000417F410000204041E0
:104820003F01007F08142241007F40404040007F4C
:10483000020C027F007F0408107F003E4141413E90
:10484000007F09090906003E4151215E007F0919D8
:1048500029460046494949310001017F0101003FD5
:104860004040403F001F2040201F003F4038403F55
:1048700000631408146300070870080700615149B9
:10488000454300007F41410000552A552A5500004C
:1048900041417F00000402010204004040404040CA
:1048A000000001020400002054545478007F484462
:1048B000443800384444442000384444487F003899
:1048C0005454541800087E0901020018A4A4A47CC2
:1048D000007F080404780000447D4000004080848C
:1048E0007D00007F102844000000417F4000007CD4
:1048F00004180478007C08040478003844444438E0
:1049000000FC242424180018242418FC007C08042B
:10491000040800485454542000043F444020003C04
:104920004040207C001C2040201C003C4030403C8B
:10493000004428102844001CA0A0A07C004464541B
:104940004C4414141414141400000000000000005F
:10495000000000000000FC00000000000200000059
:10496000000C020C020000000000000090D0BCD03F
:10497000BC900003000300001824FE448C000302D6
:10498000070201001824D8B04C8000030001020186
:10499000C038E438E000010202010202080600000B
:1049A0000000000000000000000000F80402000009
:1049B00000010204000204F80000000402010000EB
:1049C0009060F86090000000010000002020FC20B2
:1049D00020000000010000000000000000000806A8
:1049E0000000000020202020200000000000000027
:1049F0000000000000000002000000000080601CB9
:104A00000200040300000000F8040404F80001029E
:104A1000020201000008FC00000000020302000086
:104A2000188444241800030202020200080424240B
:104A3000D80001020202010040B088FC80000000A2
:104A4000000302003C242424C400010202020100ED
:104A5000F824242CC0000102020201000C04E41C12
:104A60000400000003000000D8242424D800010220
:104A70000202010038444444F8000003020201002D
:104A800000001000000000000200000000002000F4
:104A90000000000006000000002050880402000012
:104AA0000000010290909090900000000000000033
:104AB0000002048850200002010000001804C424F1
:104AC0001800000002000000F804E494F80001025D
:104AD0000202020000E09CF08000020300000302DA
:104AE00004FC2424D800020302020100F804040498
:104AF0000C0001020202010004FC0404F80002039D
:104B00000202010004FC24740C00020302020300F0
:104B100004FC24740C00020302000000F0080444AA
:104B2000CC4000010202010004FC2020FC0402032E
:104B3000000003020404FC04040002020302020059
:104B4000000404FC040406040403000004FC24D054
:104B50000C0402030200030204FC04000000020330
:104B600002020203FC3CC03CFC0003000300030003
:104B700004FC30C4FC04020302000300F804040433
:104B8000F80001020202010004FC242418000203C0
:104B900002000000F8848404F80001020207050006
:104BA00004FC246498000203020003021824244435
:104BB0008C000302020201000C04FC040C00000241
:104BC0000302000004FC0000FC04000102020100DA
:104BD000047C80E01C040000030000001CE03CE0BA
:104BE0001C00000300030000049C609C04000203FE
:104BF00000030200041CE01C040000020302000089
:104C00000C84641C04000203020203000000FE0284
:104C10000200000007040400000E30C00000000085
:104C200000010200000202FE000000040407000070
:104C3000000402040000000000000000000000006A
:104C40000000080808080808000002000000000032
:104C5000000000000040A0A0C0000001020203020A
:104C600004FC2020C00000030202010000C020203C
:104C7000600000010202020000C02024FC000001CC
:104C80000202030200C0A0A0C00000010202020054
:104C90000020F82424040002030202000040A0A027
:104CA000602000070A0A0A0404FC2020C000020356
:104CB000020003020020E4000000000203020000E2
:104CC000000020E4000008080807000004FC80E061
:104CD00020200203020003020404FC000000020280
:104CE00003020200E020E020C000030003000300F4
:104CF00020E02020C00002030200030200C02020A8
:104D0000C00000010202010020E02020C000080FC6
:104D10000A02010000C02020E0000001020A0F0882
:104D200020E0402020000203020000000060A0A05C
:104D300020000002020203000020F8200000000012
:104D40000102020020E00020E00000010202030254
:104D500020E0208060200000030100006080E080EF
:104D60006000000300030000206080602000020358
:104D70000003020020E020806020080807010000F6
:104D80000020A0602000000203020200000020DEDC
:104D90000200000000070400000000FF0000000007
:104DA000000F00000002DE200000000407000000E9
:104DB00002010204040200000000000000000000E4
:104DC000000000000000000000000000000000F8EB
:104DD00000000000000000333000000000100C064E
:104DE000100C0600000000000000000040C07840E9
:104DF000C0784000043F04043F040400007088FCB5
:104E000008300000001820FF211E0000F008F0000C
:104E1000E018000000211C031E211E0000F008887D
:104E2000700000001E2123241927211010160E00E7
:104E3000000000000000000000000000000000E092
:104E400018040200000000071820400000020418A7
:104E5000E00000000040201807000000404080F003
:104E6000804040000202010F01020200000000F039
:104E7000000000000101011F01010100000000000D
:104E80000000000080B07000000000000000000082
:104E9000000000000001010101010101000000000B
:104EA00000000000003030000000000000000000A2
:104EB00080601804006018060100000000E010087F
:104EC0000810E000000F102020100F00001010F854
:104ED000000000000020203F202000000070080893
:104EE0000888700000302824222130000030088813
:104EF000884830000018202020110E000000C0203B
:104F000010F8000000070424243F240000F808885B
:104F1000880808000019212020110E0000E01088E8
:104F200088180000000F112020110E00003808081A
:104F3000C83808000000003F00000000007088082A
:104F400008887000001C222121221C0000E01008AB
:104F50000810E0000000312222110F00000000C004
:104F6000C0000000000000303000000000000080A1
:104F70000000000000008060000000000000804091
:104F800020100800000102040810200040404040AA
:104F900040404000040404040404040000081020FD
:104FA0004080000000201008040201000070480842
:104FB0000808F0000000003036010000C030C828AA
:104FC000E810E0000718272423140B000000C03865
:104FD000E0000000203C23020227382008F88888DF
:104FE00088700000203F202020110E00C0300808EB
:104FF00008083800071820202010080008F80808C2
:105000000810E000203F202020100F0008F88888BA
:10501000E8081000203F20202320180008F8888886
:10502000E8081000203F200003000000C0300808FE
:105030000838000007182020221E020008F8080087
:105040000008F808203F210101213F20000808F84E
:10505000080800000020203F202000000000080871
:10506000F8080800C08080807F00000008F888C031
:1050700028180800203F20012638200008F80800E2
:1050800000000000203F20202020300008F8F80019
:10509000F8F80800203F003F003F200008F830C02B
:1050A0000008F808203F200007183F00E01008081B
:1050B0000810E0000F10202020100F0008F808084A
:1050C0000808F000203F210101010000E01008085D
:1050D0000810E0000F18242438504F0008F8888882
:1050E00088887000203F2000030C30200070880862
:1050F000080838000038202121221C00180808F870
:10510000080818000000203F2000000008F80800F0
:105110000008F808001F202020201F0008788800C1
:1051200000C83808000007380E010000F80800F831
:105130000008F800033C0700073C030008186880DB
:105140008068180820302C03032C30200838C80051
:10515000C83808000000203F2000000010080808A0
:10516000C83808002038262120201800000000FE42
:10517000020202000000007F40404000000C30C0EE
:1051800000000000000000010638C000000202021A
:10519000FE000000004040407F00000000000402CC
:1051A00002020400000000000000000000000000F7
:1051B00000000000808080808080808000020204E7
:1051C00000000000000000000000000000008080DF
:1051D000808000000019242222223F2008F800804D
:1051E00080000000003F112020110E000000008010
:1051F00080800000000E112020201100000000809F
:105200008088F800000E112020103F2000008080D0
:1052100080800000001F222222221300008080F0E4
:10522000888888180020203F20200000000080800F
:1052300080808000006B94949493600008F8008054
:1052400080800000203F210000203F2000809898AF
:10525000000000000020203F20200000000000800F
:105260009898000000C08080807F000008F800004F
:1052700080808000203F24022D302000000808F8A4
:10528000000000000020203F20200000808080805F
:1052900080808000203F20003F20003F80800080F1
:1052A00080800000203F210000203F2000008080FF
:1052B00080800000001F202020201F0080800080B0
:1052C0008000000080FFA12020110E00000000805F
:1052D00080808000000E112020A0FF808080800050
:1052E0008080800020203F2120000100000080807D
:1052F000808080000033242424241900008080E072
:10530000808000000000001F20200000808000003E
:1053100000808000001F202020103F20808080001F
:105320000080808000010E3008060100808000802F
:10533000008080800F300C030C300F000080800054
:10534000808080000020312E0E312000808080007F
:105350000080808080818E7018060100008080802F
:10536000808080000021302C2221300000000000CD
:10537000807C020200000000003F4040000000006E
:10538000FF00000000000000FF0000000002027C9F
:10539000800000000040403F0000000000060101C6
:1053A00002020404000000000000000000000000F1
:1053B00000000000000000000000000000000000ED
:1053C00000000000000000000000000000000000DD
:1053D0000000000000F0F0F00000000000000000FD
:1053E00000017F010000000000000000001C1C1CE8
:1053F0000000000000008060301C8C60301C0C003D
:10540000000000000000000000000000000000009C
:105410000000000000000000000000E000000000AC
:1054200000E000000086E69F86868686E69F86006E
:1054300000011F01010101011F010100000080C0E6
:105440006020F820E0C00000000003070C18FF7087
:10545000E18100000000070F10107F100F0700000F
:105460008060206080000000E02000000F302030CD
:105470009F70DC371030C0000000100E03000718CA
:10548000101807000000C02020E0C000000000004D
:1054900080E01F38E88703C43C040000070F1810A1
:1054A000100B070D1010080000808C4C3800000015
:1054B00000000000000000000000000000000000EC
:1054C00000000000000000000000000000000000DC
:1054D000000080E0300804000000000000FEFF0132
:1054E00000000000000000000000030F1820400032
:1054F00000040830E0800000000000000000000010
:1055000001FFFE0000000000004020180F03000013
:1055100000000000000000000000C00000000000CB
:10552000004266663C18FF183C66664200000000B8
:1055300000000300000000000000000000008000E8
:1055400000000000001010101010FF1010101010BC
:105550000000000000000300000000000000000048
:10556000000000000000000000000000000000003B
:105570000000000000808C4C38000000000000009B
:1055800000000000000000000000000000101010EB
:10559000101010101010100000000000000000009B
:1055A00000000000000000000000000000000000FB
:1055B00000000000000000000000000000001C1CB3
:1055C0001C000000000000000000000000000000BF
:1055D000E0380C000000000080701C030000000098
:1055E0000060380E0100000000000000000080C0D4
:1055F000E06030302060E0C000FFFFFF00000000EE
:10560000000001FF0001070F0E1C1818180C0F07EF
:10561000000000808080C0E0F0000000000000007A
:10562000000000FFFF000000000000000000001F5D
:105630001F000000000080C0E06020202060E0C06B
:10564000000003030380C0E070381F0F00181E1F06
:105650001F1B191818181818000080C0E0602020BF
:105660002060E0C00000010101001010183CEFE7CD
:105670000000070F0C181818181C0F0F000000006E
:10568000000080C0E0F0F00000C0E0F8BC8E87832E
:1056900080FFFF800001010101010101011F1F01C5
:1056A000000000E0E06060606060606000001E1F5D
:1056B0001F0C0404040CFCF80000070F0C18181849
:1056C000180C0F07000000C0E06060202060E0C000
:1056D0000000FFFF31180C0C0C1CF9F90000030747
:1056E0000F1C1818181C0F070000606060606060D5
:1056F0006060E0E000000000000000C0F87F0F03E1
:105700000000000000181F0F03000000000080C010
:10571000E06020202060E0C00080C7EF2C3810102F
:105720001038EFE70003070F1C181818181C0E0F8D
:10573000000080C0E060202060E0C08000001F3FCB
:10574000706060602030FFFF0000060E1C18181803
:105750001C0E0F030000000000000000000000000D
:1057600000000000000E0E0E00000000000000000F
:10577000001C1C1C000000000000000000000000D5
:105780000000000000000000000C0C000000000001
:105790000000000000583800000000000000000079
:1057A000000000804020100000001028448201000A
:1057B00000000000000000000000010204081000CA
:1057C000000000000000000000000000008484844D
:1057D000848484848484840000000000000000002D
:1057E00000000000000010204080000000000000C9
:1057F0000000000000000182442810000000100892
:10580000040201000000000000C020201010101051
:1058100030E0C0000003030000F010080C07030094
:10582000000000001C1C1C0000000000000000C064
:10583000406020202040C00000FCFF01F00E03C1AA
:10584000FE03807F0001070E0811111011090402E8
:105850000000000080E0E000000000000000807C0C
:105860004340477FF880000010181F100000000020
:10587000131F1C1020E0E02020202060C0800000CA
:1058800000FFFF10101010182FE78000101F1F10CE
:1058900010101010180F0700000080C040202020BA
:1058A0002060E00000FCFF0100000000000001009B
:1058B0000001070E181010100804030020E0E0207B
:1058C00020202040C080000000FFFF0000000000FA
:1058D00001FFFE00101F1F10101018080E07010016
:1058E00020E0E020202020202060800000FFFF102A
:1058F0001010107C00000000101F1F10101010105E
:105900001018060020E0E0202020202060608000A9
:1059100000FFFF101010107C00000100101F1F106E
:105920000000000000000000000080C06020202077
:1059300040E0000000FCFF0100004040C0C14040CA
:105940000001070E181010100F0F000020E0E020DB
:105950000000000020E0E02000FFFF1010101010F9
:1059600010FFFF00101F1F1000000000101F1F106D
:105970000000202020E0E0202020000000000000A7
:1059800000FFFF000000000000001010101F1F109B
:105990001010000000000000202020E0E020202067
:1059A00000000000000000FFFF0000000060E08039
:1059B0008080C07F3F00000020E0E020000020A0A9
:1059C0006020200000FFFF30187CE3C000000000D2
:1059D000101F1F10000001131F1C181020E0E020F2
:1059E000000000000000000000FFFF0000000000B9
:1059F00000000000101F1F101010101010180600DB
:105A000020E0E0E000000000E0E0E02000FF013FD7
:105A1000FEC0E01E01FFFF00101F1000031F030067
:105A2000101F1F1020E0E0C0000000000020E02058
:105A300000FF0003071C78E08000FF00101F10002B
:105A400000000000030F1F00000080C060202060E5
:105A5000C080000000FEFF010000000000FFFE000B
:105A60000001070E181010180C07010020E0E020BC
:105A70002020202060C0800000FFFF202020202068
:105A8000301F0F00101F1F1000000000000000005A
:105A9000000080C060202060C080000000FEFF0188
:105AA0000000000000FFFE000001070E1111133C72
:105AB0007C67210020E0E0202020202060C08000C2
:105AC00000FFFF101030F0D0080F0700101F1F104C
:105AD000000000030F1C10100080C0602020202058
